:100000000C94AC000C946C0E0C94450E0C94D40023
:100010000C94D4000C94D4000C94D4000C94D40010
:100020000C94D4000C94C6100C94D4000C94EB0ED9
:100030000C94D4000C94D4000C940B110C94D400A8
:100040000C94FC0D0C94D4000C94B90E0C94930EEB
:100050000C94D4000C94D4000C94D4000C94D400D0
:100060000C94A70F0C94D400436F756C64206E6FD2
:10007000742066696E642072616E67696E672073B2
:10008000656E736F722E20436865636B20776972AB
:10009000696E672E00436F756C64206E6F74206606
:1000A000696E6420636F6C6F75722073656E736F19
:1000B000722E20436865636B20776972696E672EC4
:1000C00000436F756C64206E6F742066696E6420E7
:1000D0004D6F746F7220536869656C642E2043689D
:1000E00065636B20776972696E672E004375727263
:1000F000656E7420616E676C653A20000000000038
:10010000240027002A0000000000250028002B0002
:100110000000000023002600290004040404040455
:1001200004040202020202020303030303030102A6
:100130000408102040800102040810200102040875
:100140001020000000080002010000030407000066
:10015000000000000000BA1111241FBECFEFD8E04C
:10016000DEBFCDBF11E0A0E0B1E0E2ECF6E302C0FB
:1001700005900D92AE35B107D9F728E0AEE5B1E0B4
:1001800001C01D92AD3EB207E1F710E0CCEAD0E02D
:1001900004C02197FE010E946318CB3AD107C9F72A
:1001A0000E94B5120C945F1B0C9400000F931F93D8
:1001B000CF93DF93EB01FB01EE0FFF1FE80FF91F59
:1001C000608171816F3F760749F4D0934107C093F6
:1001D0004007DF91CF911F910F9108958A010E94EE
:1001E000D600F80180819181019691838083880FE8
:1001F000991FFC01E05CF84FD183C083EACF2F92B6
:100200003F924F925F926F927F928F929F92AF92A6
:10021000BF92CF92DF92EF92FF920F931F93CF93F3
:10022000DF93CDB7DEB7E8970FB6F894DEBF0FBE09
:10023000CDBF9E012B5D3F4FD901E8EEF1E014EFF9
:10024000E12EFF24F394E192F1921D9212E0EC3042
:10025000F107C9F7880F991FFC01E851FE4F118281
:100260001082E0E4F7E08FEF9FEF81939193A7E096
:10027000E436FA07D1F7FE013196CF01AFEFBFEFB9
:10028000A193B1932E173F07D9F7F1E12F2E312C0F
:1002900044244394A8E45A2E08EE11E05901E4EFF7
:1002A000EE2EFF24F394F0E0E0E0D501DD905D0157
:1002B000D11008C0D801CD90DC90EC14FD0414F0EE
:1002C000AF01760131960E5F1F4FE231F10569F7FC
:1002D000F901E40FF51F4082549E3001559E700CC9
:1002E0001124FA01EE0FFF1FDF01A851BE4F4D018F
:1002F0005901F0E0E0E0D5011D915D01111128C028
:100300008F01000F111F060D171D005D1D4FD80135
:10031000ED90FC90E114F104D9F0D4010D911C9101
:10032000043FB1E01B07A1F00E0D1F1DDF01A85116
:10033000BE4F7D01CD90DC900C151D054CF46C0179
:10034000CE0EDF1ED6014D935C93D7010D931C9307
:100350003296E432F10579F6B1E02B1A310809F052
:100360009BCF18AE1FAAAE01495C5F4F0E94D6001A
:10037000E8960FB6F894DEBF0FBECDBFDF91CF91E8
:100380001F910F91FF90EF90DF90CF90BF90AF90B3
:100390009F908F907F906F905F904F903F902F90A5
:1003A0000895089508954F925F926F927F928F9271
:1003B0009F92AF92BF92CF92DF92EF92FF92CF9334
:1003C000DF93CEE5D1E0C81BD90BBE010D2E000C8A
:1003D000880B990B0E9413196B017C012091BE01BF
:1003E0003091BF014091C0015091C1010E946A1833
:1003F0004B015C018092BE019092BF01A092C001AE
:10040000B092C1018091BC019091BD01BE01681BF9
:10041000790B072E000C880B990B0E9413192AE9FF
:1004200039E949E15FE30E94C8192B013C012AE93F
:1004300039E949E95EE3C501B4010E94C819A70181
:1004400096010E946A189B01AC01C301B2010E948F
:100450006A180E94DB187093BB016093BA01D093B5
:10046000BD01C093BC01DF91CF91FF90EF90DF9071
:10047000CF90BF90AF909F908F907F906F905F9044
:100480004F900895E091B901EF5FE093B901809139
:10049000B801F0E0EE0FFF1FE05CF84F20813181E2
:1004A0008217130651F48550823020F481E0809346
:1004B000B701089581E08093B60108958F929F92CD
:1004C000AF92BF92FF920F931F93CF93DF93F09061
:1004D0008F082BE02F1508F44CC02091910808E5F7
:1004E00012E0021B110927FD1395000F111F000FC9
:1004F000111F20919008C8E8D0E0C21BD10927FD48
:10050000D395CC0FDD1FCC0FDD1F4E010D2E000C3F
:10051000AA08BB089801012E000C440B550B2819A2
:1005200039094A095B09DC010E94021824EB30E01A
:1005300040E050E00E94D817820E931EA41EB51E04
:100540008C169D062CF0E801801691060CF4E4014F
:100550002297CC0FDD1F2FB7F8948F2D90E0FC0170
:10056000EE0FFF1FE80FF91FE659F74FD283C18343
:100570002FBFDF91CF911F910F91FF90BF90AF9050
:100580009F908F9008958091E6019091E701891BDB
:10059000990B0895833081F028F4813099F08230EE
:1005A000A9F008958730A9F08830C9F08430B1F4FB
:1005B000809180008F7D03C0809180008F77809331
:1005C0008000089584B58F7784BD089584B58F7DAC
:1005D000FBCF8091B0008F778093B0000895809119
:1005E000B0008F7DF9CFCF93DF93282F30E0F90152
:1005F000EE5BFE4F8491F901E25DFE4FD491F9016B
:10060000E65EFE4FC491CC23A1F081110E94CA0284
:10061000EC2FF0E0EE0FFF1FE05FFE4FA591B491CD
:10062000EC91ED2381E090E009F480E0DF91CF913F
:10063000089580E090E0FACF1F93CF93DF93282FA7
:1006400030E0F901EE5BFE4F8491F901E25DFE4F6F
:10065000D491F901E65EFE4FC491CC23A9F0162F88
:1006600081110E94CA02EC2FF0E0EE0FFF1FEA5F3B
:10067000FE4FA591B4918FB7F894EC91111108C079
:10068000D095DE23DC938FBFDF91CF911F9108952A
:10069000DE2BF8CF3FB7F8948091B2019091B3016F
:1006A000A091B401B091B50126B5A89B05C02F3F1C
:1006B00019F00196A11DB11D3FBFBA2FA92F982F88
:1006C0008827BC01CD01620F711D811D911D42E083
:1006D000660F771F881F991F4A95D1F708958F924B
:1006E0009F92AF92BF92CF92DF92EF92FF926B01F7
:1006F0007C010E944A034B015C01C114D104E10456
:10070000F104B9F00E944A03681979098A099B0922
:10071000683E73408105910580F321E0C21AD1083B
:10072000E108F10888EE880E83E0981EA11CB11C38
:10073000E4CFFF90EF90DF90CF90BF90AF909F906D
:100740008F90089582E00E94F30221E0892B09F442
:1007500020E020935F0183E00E94F30281E0809318
:10076000A80108950895AF92BF92CF92DF92EF92C1
:10077000FF920F931F93CF93DF936C017B018B014B
:10078000040F151FEB015E01AE18BF08C017D1079B
:1007900059F06991D601ED91FC910190F081E02D25
:1007A000C6010995892B79F7C501DF91CF911F917A
:1007B0000F91FF90EF90DF90CF90BF90AF90089592
:1007C000FC01538D448D252F30E0842F90E0821B57
:1007D000930B541710F0CF96089501970895FC01DC
:1007E000918D828D981761F0A28DAE0FBF2FB11D34
:1007F0005D968C91928D9F5F9F73928F90E008958C
:100800008FEF9FEF0895FC01918D828D981731F045
:10081000828DE80FF11D858D90E008958FEF9FEF99
:100820000895FC01918D228D892F90E0805C9F4F6F
:10083000821B91098F739927089584EB97E00E949A
:10084000110421E0892B09F420E0822F089580E033
:1008500090E0892B29F00E941D0481110C94000066
:100860000895FC01A48DA80FB92FB11DA35ABF4F45
:100870002C91848D90E001968F739927848FA6899F
:10088000B7892C93A089B1898C91837080648C93F3
:10089000938D848D981306C00288F389E02D8081A2
:1008A0008F7D80830895EF92FF920F931F93CF93D4
:1008B000DF93EC0181E0888F9B8D8C8D98131AC09B
:1008C000E889F989808185FF15C09FB7F894EE8982
:1008D000FF896083E889F9898081837080648083DF
:1008E0009FBF81E090E0DF91CF911F910F91FF902A
:1008F000EF900895F62E0B8D10E00F5F1F4F0F73D2
:100900001127E02E8C8D8E110CC00FB607FCFACF8C
:10091000E889F989808185FFF5CFCE010E943104F5
:10092000F1CFEB8DEC0FFD2FF11DE35AFF4FF0825D
:100930009FB7F8940B8FEA89FB8980818062CFCFC3
:100940000F931F93CF93DF938C01D0E0C0E0F801A9
:10095000EC0FFD1F6491662341F084EB97E00E9449
:100960005304892B11F02196F2CFCE01DF91CF9164
:100970001F910F910895CF93DF93EC01888D882309
:10098000B9F0AA89BB89E889F9898C9185FD03C0F2
:10099000808186FD0DC00FB607FCF7CF8C9185FFD7
:1009A000F2CF808185FFEDCFCE010E943104E9CFE7
:1009B000DF91CF91089560E070E080E592E40895C2
:1009C00060E070E080ED92E4089508952091820146
:1009D000260F3327331F21323105ECF420918A078B
:1009E000FC0190E080E0243069F082E00895A0915D
:1009F00082012191AC014E595E4FA40FB52FB11D5C
:100A00002C930196861798F380918201680F60936A
:100A1000820180E0089581E0089510928A0781E0C4
:100A2000809389071092640761E082E10E941C03B1
:100A300061E083E10E941C03E9EBF0E080818E7F9E
:100A4000808380818D7F808388E48093B80085E4F3
:100A50008093BC0008951092E7011092E601109275
:100A600091071092B3070E940D0581ED91E09093DC
:100A7000E5018093E40182ED91E09093E30180939E
:100A8000E2010895CF93DF9391E090936101882371
:100A9000B9F0C091B800D091BA008091BC008A7BB7
:100AA0008093BC0060E082E10E941C0360E083E16F
:100AB0000E941C030E940D05D093BA00C093B80099
:100AC000DF91CF9108958F929F92AF92BF92CF9274
:100AD000DF92EF92FF920F931F93CF93DF93D0910A
:100AE000B307D13208F0D7C0182FC091B2070E94C7
:100AF0004A036B017C0180918A0781116BC082E0FF
:100B000080938A07109389078FEF8093880710924C
:100B10008707D0938607A2E9B7E0E6E6F7E080E032
:100B2000D81391C01092650780916507CC0FC82B30
:100B3000C093650780916407813009F088C01092E6
:100B400064070E944A036B017C01809165078093D2
:100B5000BB0080918C0790918D07A0918E07B0917A
:100B60008F07892B8A2B8B2BA1F00E944A030091BF
:100B70008C0710918D0720918E0730918F076C198B
:100B80007D098E099F09061717072807390708F4FA
:100B900042C08091BC0083FDD8CF85EC8093BC001F
:100BA0000E944A036B017C0180918A07823009F41C
:100BB00050C0809188078F3F09F46FC080918807EB
:100BC000803209F46CC080918807803309F469C0D1
:100BD00084E026C080918C0790918D07A0918E07AC
:100BE000B0918F07892B8A2B8B2B09F484CF0E941D
:100BF0004A0380908C0790908D07A0908E07B0904C
:100C00008F076C197D098E099F0986169706A8061D
:100C1000B90608F070CF80918B070E94420585E0ED
:100C2000109291071092B30710929007DF91CF9125
:100C30001F910F91FF90EF90DF90CF90BF90AF90FA
:100C40009F908F9008959D9191938F5F69CF85EECE
:100C5000A5CF80918C0790918D07A0918E07B091C0
:100C60008F07892B8A2B8B2B09F49ECF0E944A0376
:100C700000918C0710918D0720918E0730918F077E
:100C80006C197D098E099F09061717072807390770
:100C900008F08ACFC0CF81E0C3CF80E0C1CF82E02F
:100CA000BFCF83E0BDCFCF93DF93EC018B8188234F
:100CB000A1F0888191E0909390078093B207109201
:100CC00091071092B30781E00E94630591E08111C2
:100CD00090E0892FDF91CF9108950E942B0581E04C
:100CE0008B83CE010E945306982F8111E2CFF1CF62
:100CF0008F929F92AF92BF92CF92DF92EF92FF922C
:100D00000F931F93CF93DF93D82FC62F142F6132E9
:100D100008F09CC00E944A036B017C0180918A0705
:100D200081116FC081E080938A07109389079FEF3C
:100D300090938807109287079C0F90938607809363
:100D4000650780916507DD0FD82BD09365078091EB
:100D50006407813009F07CC0109264070E944A0346
:100D60006B017C01809165078093BB0080918C07AB
:100D700090918D07A0918E07B0918F07892B8A2BB8
:100D80008B2BA1F00E944A0300918C0710918D07D4
:100D900020918E0730918F076C197D098E099F096C
:100DA000061717072807390708F44CC08091BC00C4
:100DB00083FDD8CF85EC8093BC000E944A036B0171
:100DC0007C0180918A07813009F444C080918707B3
:100DD0008C1710F4C0918707E6E6F7E0A2ECB1E0CB
:100DE00080E08C1359C08C2FDF91CF911F910F9110
:100DF000FF90EF90DF90CF90BF90AF909F908F903B
:100E0000089580918C0790918D07A0918E07B091E5
:100E10008F07892B8A2B8B2B09F480CF0E944A03E2
:100E200080908C0790908D07A0908E07B0908F07D0
:100E30006C197D098E099F0986169706A806B906C2
:100E400008F06CCF80918B070E944205C0E0CBCFA9
:100E500085EEB1CF80918C0790918D07A0918E0780
:100E6000B0918F07892B8A2B8B2B09F4AACF0E9474
:100E70004A0300918C0710918D0720918E073091C5
:100E80008F076C197D098E099F0906171707280718
:100E9000390708F096CFD6CF91919D938F5FA1CF60
:100EA0000895E091E7018091E601E81730F4F0E061
:100EB000EE53FE4F808190E008958FEF9FEF0895ED
:100EC0009091E7018091E6012FEF3FEF981748F4EA
:100ED000E92FF0E0EE53FE4F208130E09F5F9093CA
:100EE000E701C9010895CF92DF92EF92FF920F932D
:100EF0001F93CF93DF937C01CB018A012091900750
:100F0000222389F0EB016B01C40ED51ECC15DD0543
:100F100069F06991D701ED91FC910190F081E02D8C
:100F2000C7010995F3CF642F0E94E604C801DF9141
:100F3000CF911F910F91FF90EF90DF90CF90089588
:100F4000CF93DF931F92CDB7DEB7698320919007CF
:100F50002223F9F02091B307203258F021E030E04D
:100F6000FC013383228390E080E00F90DF91CF91EA
:100F7000089580919107E82FF0E0EE56F84F99819F
:100F800090838F5F809391078093B30781E090E017
:100F9000ECCF61E0CE0101960E94E604F7CF90E02D
:100FA00080E008951F93CF93DF93DC011496ED91B9
:100FB000FC91E417F50710F490E01FC0122FEA012E
:100FC000FC0181819281208131E030939007209350
:100FD000B207109291071092B307DC01ED91FC91DA
:100FE0000280F381E02D0995C817D90729F7812FD1
:100FF0000E94630591E08111DFCF892FDF91CF91AE
:101000001F910895CF93DF9300D0CDB7DEB78068EE
:1010100089836A8321E042E050E0BE016F5F7F4F29
:1010200080919D0890919E080E94D2070F900F908A
:10103000DF91CF910895CF93DF9300D0CDB7DEB786
:1010400089836A8321E042E050E0BE016F5F7F4FF9
:101050008091E7089091E8080E94D2070F900F90C6
:10106000DF91CF910895CF93DF9300D000D01F92EE
:10107000CDB7DEB7660F660F6A5F69831A825B833E
:101080002C833D8321E045E050E0BE016F5F7F4F40
:10109000FC01818192810E94D2070F900F900F90E6
:1010A0000F900F90DF91CF910895FC01668380E14E
:1010B000689F900111248381948150E040E0608119
:1010C000CF960C943308CF93DF93EC018091A50861
:1010D0009091A6086091050170E06C1B7D0B77FD77
:1010E0001DC06F3F710519F014F06FEF70E00E94A2
:1010F00055088091A3089091A408609105016C0F98
:101100007D2F711D77FD0CC06F3F710519F014F034
:101110006FEF70E0DF91CF910C94550860E0E7CF5E
:1011200060E0F8CFCF92DF92EF92FF921F93CF93C0
:10113000DF937C01162F6A01E901DC0114968D9181
:101140009C911597892BD1F11B969C911B971C960E
:101150008C911C979CBD8DBD60E017968C910E9470
:101160001C0310681EBD00000DB407FEFDCF8EB538
:10117000F60180818EBDCE01019741F031810DB421
:1011800007FEFDCF2EB53EBD2193F6CF2197CC0DA6
:10119000DD1D0DB407FEFDCF8EB5888361E0D7015C
:1011A00017968C910E941C0381E090E0DF91CF9113
:1011B0001F91FF90EF90DF90CF900895F70182810B
:1011C0009381268131E0309390072093B2071092EB
:1011D00091071092B307DC01ED91FC910190F08131
:1011E000E02D099580E00E946305811121C041E056
:1011F0006C2FF70186810E9478061092E701809398
:10120000E6018C171D06B9F4CC0DDD1DD701129631
:101210008D919C91DC01ED91FC910284F385E02D90
:101220000995F60181936F01CE17DF0779F7BCCFDF
:101230008FEF9FEFBBCF90E080E0B8CFCF93DF93ED
:101240001F92CDB7DEB721E030E0AE014F5F5F4FB8
:101250006EE10E949208019731F4898190E00F902D
:10126000DF91CF9108958FEF9FEFF9CF0E941E0974
:1012700082FB882780F990E008950E941E098695D8
:10128000817090E008950E941E0981709927089549
:101290000F931F93CF93DF9300D0CDB7DEB78B01B1
:1012A00022E030E0AE014F5F5F4F60E20E949208A3
:1012B000009781F440E050E060EC7FE7F801408364
:1012C0005183628373830F900F90DF91CF911F91B1
:1012D0000F91089569817A81072E000C880B990B74
:1012E0000E94131920E030E040E85DE30E94C81935
:1012F00020E030E048EC51E40E946A18F801608375
:1013000071838283938381E090E0DDCFCF92DF927F
:10131000EF92FF920F931F93CF93DF9300D000D0F3
:1013200000D0CDB7DEB76B017A01890126E030E04D
:10133000AE014F5F5F4F62E20E949208009711F585
:1013400040E050E060EC7FE7F60140835183628328
:101350007383F7014083518362837383F801408371
:1013600051836283738326960FB6F894DEBF0FBE57
:10137000CDBFDF91CF911F910F91FF90EF90DF9044
:10138000CF90089569817A81072E000C880B990B04
:101390000E94131920E030E04AEF54E40E94C8197B
:1013A00020E030E040E058E30E94C819F601608375
:1013B0007183828393836B817C81072E000C880B61
:1013C000990B0E94131920E030E04AEF54E40E9488
:1013D000C81920E030E040E058E30E94C819F70146
:1013E00060837183828393836D817E81072E000CDD
:1013F000880B990B0E94131920E030E04AEF54E467
:101400000E94C81920E030E040E058E30E94C8196B
:10141000F801608371838283938381E090E0A3CF9E
:10142000CF92DF92EF92FF920F931F93CF93DF93B0
:1014300000D000D000D0CDB7DEB76B017A018901B2
:1014400026E030E0AE014F5F5F4F68E20E949208F5
:10145000009711F540E050E060EC7FE7F601408333
:10146000518362837383F701408351836283738363
:10147000F801408351836283738326960FB6F894F4
:10148000DEBF0FBECDBFDF91CF911F910F91FF90B7
:10149000EF90DF90CF90089569817A81072E000C3C
:1014A000880B990B0E94131920E030E040E850E4CB
:1014B0000E94C81920E030E040E058E30E94C819BB
:1014C000F60160837183828393836B817C81072E15
:1014D000000C880B990B0E94131920E030E040E8C3
:1014E00050E40E94C81920E030E040E058E30E9438
:1014F000C819F70160837183828393836D817E8134
:10150000072E000C880B990B0E94131920E030E085
:1015100040E850E40E94C81920E030E040E058E381
:101520000E94C819F801608371838283938381E0EC
:1015300090E0A3CF5F926F927F928F929F92AF9233
:10154000BF92CF92DF92EF92FF920F931F93CF93B0
:10155000DF937C013A01690120E041E050E00E9404
:10156000D207582E882309F450C010E000E0D701BC
:1015700014968D919C91E601C01BD10B8C179D0791
:1015800008F4EC0141E0C6018C1B9D0B08171907FC
:1015900008F440E06C2FF70180810E9478061092D9
:1015A000E7018093E6018C171D0679F54301800E53
:1015B000911E5401C501881999098C179D0778F46B
:1015C000D70111968D919C91DC01ED91FC910284E3
:1015D000F385E02D0995F50181935F01EBCF0C0FA9
:1015E0001D1F0C151D0518F2852DDF91CF911F9140
:1015F0000F91FF90EF90DF90CF90BF90AF909F90B2
:101600008F907F906F905F900895512CEDCFCF9386
:10161000DF9300D0CDB7DEB71A8219828068898344
:1016200022E030E0AE014F5F5F4FBA0180919D082C
:1016300090919E080E949A0A89819A810F900F903A
:10164000DF91CF910895EF92FF920F931F93CF9365
:10165000DF93CDB7DEB72A970FB6F894DEBF0FBE83
:10166000CDBFCE0101967C018AE0F70111928A95E7
:10167000E9F780919C0891E0909390078093B207DE
:10168000109291071092B30763E08EE598E00E94F4
:10169000A00781E00E94630541E062E080919C0820
:1016A0000E947806082F1092E7018093E60110E06F
:1016B0008091E701081751F08EE598E00E946007DD
:1016C000F701E10FF11D80831F5FF2CF898190E068
:1016D000982F88272A81820F911D2A960FB6F89499
:1016E000DEBF0FBECDBFDF91CF911F910F91FF9055
:1016F000EF900895CF93DF93EC018B819C8130E0D4
:1017000020E050E040E06A81CF960E9433088B8150
:101710009C8130E020E040E050E16981CF96DF918C
:10172000CF910C943308CF93DF93623021F0DF9197
:10173000CF910C947A0BEC018B819C8130E020E0FE
:1017400050E040E06981CF960E9433088B819C81F4
:1017500030E020E040E050E16A81CF96DF91CF9108
:101760000C9433088F929F92AF92BF92EF92FF92A8
:101770000F931F93CF93DF93182FE090A508F0905D
:10178000A6088430A9F462E0C7010E94930B62E0CE
:101790008091A3089091A408DF91CF911F910F91A0
:1017A000FF90EF90BF90AF909F908F900C94930B11
:1017B000853021F481E08093A70113E01092A90104
:1017C0001092AA011092AB011092AC01809100011D
:1017D000811B990B029664E070E00E943B18BC01EB
:1017E00062507109072E000C880B990B0E94131987
:1017F0002BED3FE049EC5FE30E94C8190E94DB1823
:10180000EB0160910501C7010E9455086091050137
:101810008091A3089091A4080E9455088091A50882
:101820009091A6081C161D060CF05BC00E947A0B56
:1018300062E08091A3089091A4080E94930B80908D
:10184000A9019090AA01A090AB01B090AC0120E05A
:1018500030E0A901C501B4010E94C319181624F093
:10186000B7FAB094B7F8B09401E0EE24FF24EC1A74
:10187000FD0ABE01D7FDB701072E000C880B990B9E
:101880000E941319A50194010E94C31918169CF116
:101890000093600160E08091A5089091A6080E94E5
:1018A000550860E08091A3089091A4080E94550813
:1018B0008091A5089091A6080E947A0B8091A308B8
:1018C0009091A4080E947A0B10930001DF91CF91B0
:1018D0001F910F91FF90EF90BF90AF909F908F90CE
:1018E000089562E00E94930B8091A3089091A40850
:1018F0000E947A0BA4CF00E0BCCFFC010190002035
:10190000E9F73197AF01481B590BBC0184EB97E015
:101910000C94B303CF93DF930E94A004EC018EE4F8
:1019200091E00E947D0C8C0F9D1FDF91CF91089557
:101930008F929F92AF92BF920F931F93CF93DF939B
:10194000CDB7DEB7A1970FB6F894DEBF0FBECDBFFF
:1019500019A2423008F44AE08E010F5D1F4F842E19
:10196000912CB12CA12CA50194010E940A18E62FFC
:10197000B901CA01EA30F4F4E05DD801EE938D01BB
:10198000232B242B252B79F790E080E0109719F07A
:10199000CD010E947D0CA1960FB6F894DEBF0FBE5C
:1019A000CDBFDF91CF911F910F91BF90AF909F90CE
:1019B0008F900895E95CE1CF0C94D61AFF920F93B3
:1019C0001F93CF93DF931F92CDB7DEB780919D0811
:1019D00090919E08009711F00E94D61A86E090E040
:1019E0000E943A1A8C0189E2F80180838EE598E022
:1019F00092838183138280E290E0958384831093A5
:101A00009E0800939D080E942B0581E0F8018383C6
:101A1000C8010E945306182F811109C010E0812FC0
:101A20000F90DF91CF911F910F91FF90089582E960
:101A3000898321E030E0AE014F5F5F4FBA018091B2
:101A40009D0890919E080E949A0A89818D3421F008
:101A5000843411F0803111F781E080939F08009168
:101A6000A208602F0E9402080093A2080091A0081B
:101A7000F090A10880919F08811102C00E94DE0CA5
:101A8000602F8FE00E9402080093A008F092A10846
:101A900061E080E00E94020863E070E080E090E096
:101AA0000E946F0363E080E00E9402088091A20818
:101AB00020E031E0281B31094CE0429FC001439FE8
:101AC000900D112465E070E00E943B186F5F7F4F1E
:101AD000072E000C880B990B0E946F03A0CF9F92DA
:101AE000AF92BF92CF92DF92EF92FF920F931F932C
:101AF000CF93DF9305E010E0D0E0C0E0A12CBB2441
:101B0000B3949CE0992E25E0E22EF12C80919F0861
:101B1000811102C00E94DE0C84E10E94070B6C015F
:101B200086E10E94070B88E10E94070B8AE10E9470
:101B3000070B8091A2089501281B3109929EC001D4
:101B4000939E900D1124B7010E943B186F5F7F4F49
:101B5000072E000C880B990B0E946F03CC0DDD1D26
:101B60000150110999F6CE01B7010E943B18CB0133
:101B7000DF91CF911F910F91FF90EF90DF90CF9069
:101B8000BF90AF909F90089585ED8093BC008091A9
:101B90008C0790918D07A0918E07B0918F070796C3
:101BA000A11DB11D23E0B695A795979587952A9518
:101BB000D1F72091BC0024FD03C010928A0708953C
:101BC00040918C0750918D0760918E0770918F071F
:101BD000452B462B472B69F30097A105B10541F032
:101BE0002AE22A95F1F700C00197A109B109E1CFD6
:101BF00080918B070C9442051F920F920FB60F92A3
:101C000011242F933F938F939F93AF93BF93809112
:101C1000AE019091AF01A091B001B091B1013091AE
:101C2000AD012DEF230F2D3768F50197A109B109FB
:101C30003FE336BD2093AD018093AE019093AF0199
:101C4000A093B001B093B1018091B2019091B30122
:101C5000A091B401B091B5010196A11DB11D809371
:101C6000B2019093B301A093B401B093B501BF91B9
:101C7000AF919F918F913F912F910F900FBE0F9039
:101C80001F90189520E8230FD3CF1F920F920FB605
:101C90000F9211242F933F934F935F936F937F93F2
:101CA0008F939F93AF93BF93EF93FF93E0910301C3
:101CB000F09104010995FF91EF91BF91AF919F9130
:101CC0008F917F916F915F914F913F912F910F90E5
:101CD0000FBE0F901F9018951F920F920FB60F9284
:101CE00011242F933F934F935F936F937F938F9321
:101CF0009F93AF93BF93EF93FF93E0910101F09116
:101D000002010995FF91EF91BF91AF919F918F9142
:101D10007F916F915F914F913F912F910F900FBEE7
:101D20000F901F9018951F920F920FB60F921124CB
:101D30002F933F934F935F936F937F938F939F93D3
:101D4000AF93BF93EF93FF9384EB97E00E9431042E
:101D5000FF91EF91BF91AF919F918F917F916F9183
:101D60005F914F913F912F910F900FBE0F901F9059
:101D700018951F920F920FB60F9211242F938F93E5
:101D80009F93EF93FF93E091C407F091C507808183
:101D9000E091CA07F091CB0782FD1BC09081809132
:101DA000CD078F5F8F732091CE07821741F0E091AE
:101DB000CD07F0E0EC54F84F958F8093CD07FF915D
:101DC000EF919F918F912F910F900FBE0F901F90C9
:101DD00018958081F4CF1F920F920FB60F921124A5
:101DE0002F933F934F935F936F937F938F939F9323
:101DF000AF93BF93CF93DF93EF93FF938091A501B0
:101E0000C0918E08D0E087FF24C010928500109208
:101E100084008091A5018F5F8093A5018091A50129
:101E2000082E000C990B8C179D0724F48091A501B6
:101E30008C30C4F1809184009091850004968034A8
:101E40009C4908F47AC080918400909185000496A2
:101E500076C08091A501082E000C990B8C179D0768
:101E6000C4F6E091A5018E2FEE0F990BFC01EE0F49
:101E7000FF1FE80FF91FE659F74F808186FFC9CF92
:101E8000E091A5018E2FEE0F990BFC01EE0FFF1FC5
:101E9000E80FF91FE659F74F808160E08F730E94C9
:101EA0001C03B7CF2091840030918500E091A501FB
:101EB0008E2FEE0F990BFC01EE0FFF1FE80FF91F9D
:101EC000E659F74F81819281820F931F9093890089
:101ED00080938800E091A5018E2FEE0F990BFC01F5
:101EE000EE0FFF1FE80FF91FE659F74F808186FFBD
:101EF00011C0E091A5018E2FEE0F990BFC01EE0FA2
:101F0000FF1FE80FF91FE659F74F808161E08F73DB
:101F10000E941C03FF91EF91DF91CF91BF91AF9190
:101F20009F918F917F916F915F914F913F912F91F1
:101F30000F900FBE0F901F90189580E49CE990932E
:101F40008900809388008FEF8093A501E3CF1F92D3
:101F50000F920FB60F9211242F933F934F935F93DD
:101F60006F937F938F939F93AF93BF93EF93FF9361
:101F70008091B900887F803609F44AC0F0F5883234
:101F800009F4A7C018F5803109F49BC0B8F4882380
:101F900009F4F9C0883009F494C0FF91EF91BF9122
:101FA000AF919F918F917F916F915F914F913F91F1
:101FB0002F910F900FBE0F901F901895883109F444
:101FC00088C0803251F78093880714C0803409F4A8
:101FD0009DC040F48033B9F38833F9F680938807C5
:101FE00085ECB0C0803509F485C0883509F496C009
:101FF000883499F60E94C40DD0CF883909F48CC07A
:1020000038F5883729F050F4883611F0803729F6F2
:1020100083E080938A071092A40157C0883809F49E
:102020007BC0803919F0803809F0B7CF8091A401C6
:10203000803208F071C0E091A40181E08E0F80939E
:10204000A4018091BB00F0E0EC57FE4F80833DC0BF
:10205000803B39F0E0F4803A09F479C0883A09F01D
:102060009CCF84E080938A071092830110928201B2
:10207000E091E401F091E5010995809182018111DF
:102080000FC081E0809382011092620109C0803C00
:1020900009F4A6CF883C09F4A3CF883B09F07DCF93
:1020A000E091830181E08E0F80938301F0E0EE598F
:1020B000FE4F80818093BB009091830180918201CB
:1020C00029C0809165078093BB0085EC8093BC009C
:1020D00064CF9091870780918607981758F5E09113
:1020E000870781E08E0F80938707F0E0EA59F84F69
:1020F0008081E9CFE091870781E08E0F8093870789
:102100008091BB00F0E0EA59F84F808390918707F7
:10211000809186079817C8F285E8D8CFE0918707A5
:1021200081E08E0F809387078091BB00F0E0EA5931
:10213000F84F80838091890781115CCF81E0809383
:10214000640784EA8093BC0010928A0726CF85EC4E
:102150008093BC0010928A078091A401803230F4F1
:10216000E091A401F0E0EC57FE4F10826091A401D1
:1021700070E0E091E201F091E30184E891E00995DB
:102180001092A4010ACF1092880734CF1F920F92A9
:102190000FB60F9211242F933F934F935F936F933A
:1021A0007F938F939F93AF93BF93EF93FF93809110
:1021B0005E018F5F80935E018F31E0F0E091A508B2
:1021C000F091A6088681E091A308F091A408968179
:1021D000890F9927991F892B11F460E006C086E0CA
:1021E0000E94F30261E0892BC1F786E00E941C0384
:1021F00010925E01FF91EF91BF91AF919F918F91EE
:102200007F916F915F914F913F912F910F900FBEF2
:102210000F901F9018951F920F920FB60F921124D6
:10222000CF92DF92EF92FF922F933F934F935F9362
:102230006F937F938F939F93AF93BF93EF93FF938E
:10224000CF93DF93CDB7DEB72C97DEBFCDBF87B579
:10225000805487BD809160018823F1F181E598E089
:102260000E943D09892B89F09E012F5F3F4FAE01EF
:102270004B5F5F4FBE01675F7F4F81E598E00E9433
:102280008609C980DA80EB80FC8020E030E0A9017B
:10229000C701B6010E946A1820E030E040E05FE329
:1022A0000E94C81926EA3BE944E45BE30E94C8198E
:1022B0009B01AC016091A9017091AA018091AB01D1
:1022C0009091AC010E946A186093A9017093AA01D1
:1022D0008093AB019093AC012C960FB6F894DEBFBF
:1022E0000FBECDBFDF91CF91FF91EF91BF91AF9125
:1022F0009F918F917F916F915F914F913F912F911E
:10230000FF90EF90DF90CF900F900FBE0F901F9037
:102310001895CF93DF9390E0FC01E25DFE4F24918E
:10232000865E9E4FFC0184918823D1F090E0880F57
:10233000991FFC01E450FF4FA591B491FC01EA5FA5
:10234000FE4FC591D49161110EC09FB7F8948C9146
:10235000E22FE0958E238C932881E223E8839FBFB0
:10236000DF91CF9108958FB7F894EC91E22BEC9325
:102370008FBFF6CF1092B7071092B60788EE93E0A2
:10238000A0E0B0E08093B8079093B907A093BA0794
:10239000B093BB0724E131E03093B5072093B40735
:1023A00025EC30E03093C1072093C00724EC30E0E7
:1023B0003093C3072093C20720EC30E03093C50769
:1023C0002093C40721EC30E03093C7072093C60761
:1023D00022EC30E03093C9072093C80726EC30E0A8
:1023E0003093CB072093CA071092CD071092CE07E7
:1023F0001092CF071092D00726E231E030935208B6
:10240000209351082EE538E0309354082093530868
:1024100010925608109255082AE62093570820E596
:1024200020935C0810925D08109261081092600879
:102430008093620890936308A0936408B093650842
:1024400080E491E090935F0880935E08EAEAF8E008
:1024500086EC98E014821382158212821182108217
:1024600037968E179F07B1F71092D2081092D508B1
:102470001092D1081092D0081092E2081092E5084C
:102480001092E1081092E0081092E8081092E70814
:1024900080E48093E60880E68093A7088091AF08E7
:1024A000882309F44FC08AEA98E09093A6088093A5
:1024B000A5088091B608811112C081E08093B6080A
:1024C00087EA98E09093B5088093B4088DE08093F4
:1024D000B1088BE08093B2088CE08093B30881EB65
:1024E00098E09093A4088093A30810929E081092FD
:1024F0009D0810929F089FEF9093A20821E030E082
:102500003093A1082093A0088AE0E2E9F8E0DF0117
:102510001D928A95E9F780918E088C3018F591E02C
:10252000980F90938E0880938F0890E0FC01EE0F37
:10253000FF1FE80FF91FE659F74F88EB9BE09283E6
:102540008183089587EA98E09093AE088093AD0860
:1025500088E08093AA088AE08093AB0889E08093A2
:10256000AC08A1CF90938F080895CF93DF931F926B
:10257000CDB7DEB7789484B5826084BD84B58160C0
:1025800084BD85B5846085BD8FE386BD80916E0076
:10259000816080936E001092810080918100826042
:1025A000809381008091810081608093810080917F
:1025B00080008160809380008091B100846080936E
:1025C000B1008091B00081608093B00080917A006A
:1025D000846080937A0080917A00826080937A0090
:1025E00080917A00816080937A0080917A0080687F
:1025F00080937A001092C100E091C407F091C50762
:1026000082E08083E091C007F091C1071082E091E1
:10261000C207F091C3078FEC80831092CC07E09142
:10262000C807F091C90786E08083E091C607F09162
:10263000C707808180618083E091C607F091C7075A
:10264000808188608083E091C607F091C707808110
:1026500080688083E091C607F091C70780818F7DF5
:102660008083F89480EC87BD80916E0083608093B6
:102670006E001092B0001092B1008091B10087609E
:102680008093B10080917000816080937000789495
:102690001091A7081093E60886E090E00E943A1A8D
:1026A0007C01FC0110838EE598E092838183138284
:1026B00080E290E095838483F092E808E092E70856
:1026C0000E942B0581E0F7018383C7010E94530616
:1026D000882309F468C460E080E00E941B0880E45D
:1026E00096E09093A9088093A808198221E030E031
:1026F000AE014F5F5F4FBA018091E7089091E80803
:102700000E949A0A1981612F6F76606180E00E94B1
:102710001B0863E08EEF0E941B08612F80E00E947F
:102720001B0865E070E080E090E00E946F03612F7D
:10273000616A80E00E941B0810E030E020E050E079
:1027400040E0612F86EE98E00E9433081F5F103151
:10275000A1F70E94DE0C811105C085E990E00E947E
:102760008A0CFFCF81E180939C080E942B05809109
:102770009C0811E0109390078093B2071092910784
:102780001092B30781E00E946305882329F088E650
:1027900090E00E948A0CFFCF80E88093920880919D
:1027A0009C08109390078093B207109291071092A3
:1027B000B30767E08EE598E00E94A0076091920859
:1027C0008EE598E00E94A00781E00E94630560E02A
:1027D00081E00E94891160E082E00E94891160E03E
:1027E00083E00E94891160E087E00E94891161E026
:1027F00084E00E94891161E085E00E94891161E016
:1028000086E00E94891122EA33E03093020120938E
:10281000010180916900836080936900E89A309398
:10282000040120930301809169008C60809369000A
:10283000E99A1092BB011092BA01E0E3F2E026E0BF
:1028400030E0CF01885B9F4F338322831182108257
:1028500034968E179F07C1F78054974091F78EE208
:1028600090E090933D0280933C0290930903809303
:10287000080327E430E030938102209380023093F4
:10288000C5022093C40290938D0280938C02909392
:102890009D0380939C0325E530E0309399022093BB
:1028A0009802309375042093740441E250E05093F1
:1028B000CD024093CC02509311034093100342E2A7
:1028C00050E05093DD024093DC025093310440937A
:1028D000300448E650E05093190340931803509396
:1028E0005D0340935C039093690380936803909326
:1028F000F1038093F00330937D0320937C033093A6
:1029000059052093580586E690E0909395048093AE
:1029100094049093D9048093D80483EB90E090932F
:10292000AD048093AC04909389068093880683E27B
:1029300090E09093E1048093E004909325058093C8
:10294000240585E290E09093ED048093EC0490934D
:10295000FD058093FC0588E490E090932D0580931D
:102960002C0590937105809370058EE190E0909313
:102970003105809330059093B9058093B8058BE8B5
:1029800090E090938905809388059093DD0680936D
:10299000DC068DE290E090931106809310069093F0
:1029A00055068093540687E290E090931506809335
:1029B000140690939D0680939C068AE290E0909383
:1029C000A9068093A8069093ED068093EC0686E214
:1029D00090E09093F5068093F406909339078093E6
:1029E000380741E050E050933F0240933E0285E0BB
:1029F00090E090930B0380930A031092830210924D
:102A0000820222E030E03093C7022093C60283E0C6
:102A100090E090938F0280938E0264E070E0709358
:102A20009F0360939E0350939B0240939A0290935E
:102A30007704809376041092CF021092CE023093E6
:102A40001303209312035093DF024093DE0270932E
:102A500033046093320410921B0310921A033093D4
:102A60005F0320935E0390936B0380936A037093DC
:102A7000F3036093F20350937F0340937E0390939C
:102A80005B0580935A051092970410929604309338
:102A9000DB042093DA045093AF044093AE04909388
:102AA0008B0680938A061092E3041092E20430931E
:102AB0002705209326055093EF044093EE0490934E
:102AC000FF058093FE0510922F0510922E0530937E
:102AD00073052093720590933305809332057093AC
:102AE000BB056093BA0550938B0540938A0590937C
:102AF000DF068093DE063093130620931206709350
:102B00005706609356065093170640931606909307
:102B10009F0680939E061092AB061092AA063093F1
:102B2000EF062093EE069093F7068093F6067093D7
:102B30003B0760933A0787E08093B80167E070E055
:102B400090E080E00E94FF00A0E4B7E02CE032E0DB
:102B500042E657E068E48D919D91689FF001699F7E
:102B6000F00D1124E05DFD4F8D919C911197880F20
:102B7000991F880F991FE80FF91F82819381F9012E
:102B8000819391939F014A175B0729F78091A508CC
:102B90009091A6080E947A0B8091A3089091A408B6
:102BA0000E947A0B61E086E00E941C0387E00E948D
:102BB000F302892BD9F3AA24A39400E010E054E691
:102BC000B52E62E3962E0E946F0D0E94D301809174
:102BD000BA019091BB010E9463088CEE90E00E94C4
:102BE000A004C090A901D090AA01E090AB01F090A0
:102BF000AC01A7019601C701B6010E94351A8823CE
:102C000009F444C081E591E00E947D0C8EE491E0DE
:102C10000E947D0C8091A8018823C9F060E080911A
:102C2000A5089091A6080E94550860E08091A3082D
:102C30009091A4080E9455088091A7018111B8C005
:102C40000E94B20B8091A8018A258093A8018091EF
:102C5000B601882309F41AC1B09205014AE0F42EA6
:102C60000E94230B9C01F29EC001F39E900D112443
:102C7000C3970CF49EC00E946F0D0E94D3018091F7
:102C8000BA019091BB010E946308EACF2601370187
:102C9000E89477F82FEF3FEF4FE75FE7C301B2010A
:102CA0000E94351A81110DC02FEF3FEF4FE75FE70C
:102CB000C301B2010E94D61818161CF485E591E0F4
:102CC000A3CF2FEF3FEF4FE75FE4C701B6010E94AC
:102CD000C31918161CF489E591E096CF2FEF3FEF4A
:102CE0004FE75FECC701B6010E94D61887FDF3CF0E
:102CF00020E030E0A901C701B6010E94D61887FF85
:102D000009C06DE284EB97E00E945304F7FAF09457
:102D1000F7F8F0942AE037ED43EA5BE3C701B60128
:102D20000E946A182B013C010E94E2186B017C0191
:102D30000E9411199B01AC01C301B2010E946918E4
:102D40002B013C014AE0C701B6010E94980C6EE2DB
:102D500084EB97E00E94530420E030E040E251E42D
:102D6000C301B2010E94C8192B013C010E94E21864
:102D70006B01F12CE12C4AE0C701B6010E94980CCE
:102D8000C701B6010E9411199B01AC01C301B20138
:102D90000E94691820E030E040E251E40E94C81926
:102DA0000E94E21890E080E04AE00E94980C2ECF4A
:102DB000FFCF60E08091A5089091A6080E94550879
:102DC00060E08091A3089091A4080E9455088FE5C7
:102DD00090E00E945E0262E370E080E090E00E947A
:102DE0006F03909205013AE0F32E0E94230BFC0141
:102DF000FE9EC001FF9E900D1124C2975CF40E94BC
:102E00006F0D0E94D3018091BA019091BB010E9485
:102E10006308EBCF60E08091A5089091A6080E941E
:102E2000550860E08091A3089091A4080E9455087D
:102E300090E080E00E945E0262E370E080E090E05B
:102E40000E946F0381E00E94F30261E0892BE9F1A7
:102E500084E00E941C0325E0F22E8091B8016F2DC2
:102E600070E090E00E94FF00F092B8010E944202E0
:102E700060E777E180E090E00E946F0380E00E94CD
:102E8000B20B8091A6018F5F8093A6018091B7015C
:102E9000882309F47CC0B09205018AE0F82E0E94D4
:102EA000230B9C01F29EC001F39E900D11248035EE
:102EB00091058CF40E946F0D0E94D3018091BA019C
:102EC0009091BB010E946308EACF85E00E941C0339
:102ED00096E0F92EC2CF60E08091A5089091A608F7
:102EE0000E94550860E08091A3089091A4080E9478
:102EF00055088FE590E00E945E0262E370E080E09A
:102F000090E00E946F0362E08091A5089091A6086E
:102F10000E94930B62E08091A3089091A4080E9404
:102F2000930B62E38091A5089091A6080E94550832
:102F300062E38091A3089091A4080E94550864EF71
:102F400071E080E090E00E946F0390E080E00E94DA
:102F50005E0262E370E080E090E00E946F03E09127
:102F6000A601F12CE12CE43028F4F0E0E45FFE4F00
:102F7000E080F12C8091B801B70190E00E94FF0041
:102F8000E092B8010E94420280E00E94B20B01155B
:102F9000110509F418CE0E941D04882309F413CEEC
:102FA0000E94000010CE81EC90E00E948A0CFFCFBE
:102FB000052E97FB1EF400940E94EF1757FD07D0D3
:102FC0000E940A1807FC03D04EF40C94EF1750959A
:102FD0004095309521953F4F4F4F5F4F0895909505
:102FE0008095709561957F4F8F4F9F4F08950E94F8
:102FF0002C18A59F900DB49F900DA49F800D911D3E
:1030000011240895B7FF0C94F7170E94F717821B3D
:10301000930B0895A1E21A2EAA1BBB1BFD010DC044
:10302000AA1FBB1FEE1FFF1FA217B307E407F50778
:1030300020F0A21BB30BE40BF50B661F771F881F54
:10304000991F1A9469F760957095809590959B01EA
:10305000AC01BD01CF010895A29FB001B39FC00193
:10306000A39F700D811D1124911DB29F700D811DB4
:103070001124911D089597FB072E16F4009407D094
:1030800077FD09D00E944F1807FC05D03EF49095BB
:1030900081959F4F0895709561957F4F0895AA1B64
:1030A000BB1B51E107C0AA1FBB1FA617B70710F033
:1030B000A61BB70B881F991F5A95A9F78095909565
:1030C000BC01CD010895EE0FFF1F0590F491E02D96
:1030D00009945058BB27AA270E9481180C9489197B
:1030E0000E947B1938F00E94821920F039F49F3F2A
:1030F00019F426F40C9478190EF4E095E7FB0C947F
:103100007219E92F0E949A1958F3BA1762077307C8
:103110008407950720F079F4A6F50C94BC190EF4F9
:10312000E0950B2EBA2FA02D0B01B90190010C01D7
:10313000CA01A0011124FF27591B99F0593F50F4EF
:10314000503E68F11A16F040A22F232F342F442747
:10315000585FF3CF469537952795A795F04053953F
:10316000C9F77EF41F16BA0B620B730B840BBAF00F
:103170009150A1F0FF0FBB1F661F771F881FC2F77A
:103180000EC0BA0F621F731F841F48F4879577958E
:103190006795B795F7959E3F08F0B0CF9395880F48
:1031A00008F09927EE0F9795879508950E944E197C
:1031B00008F481E008950E94E2186894B1110C941B
:1031C000BD1908950E94A21988F09F5798F0B92F51
:1031D0009927B751B0F0E1F0660F771F881F991F4C
:1031E0001AF0BA95C9F714C0B13091F00E94BC1919
:1031F000B1E008950C94BC19672F782F8827B85F29
:1032000039F0B93FCCF3869577956795B395D9F7A3
:103210003EF490958095709561957F4F8F4F9F4FAD
:103220000895E89409C097FB3EF4909580957095B9
:1032300061957F4F8F4F9F4F9923A9F0F92F96E902
:10324000BB279395F695879577956795B795F11177
:10325000F8CFFAF4BB0F11F460FF1BC06F5F7F4F14
:103260008F4F9F4F16C0882311F096E911C0772326
:1032700021F09EE8872F762F05C0662371F096E82F
:10328000862F70E060E02AF09A95660F771F881FFE
:10329000DAF7880F9695879597F90895990F0008A2
:1032A000550FAA0BE0E8FEEF16161706E807F90718
:1032B000C0F012161306E407F50798F0621B730BB3
:1032C000840B950B39F40A2661F0232B242B252B34
:1032D00021F408950A2609F4A140A6958FEF811DD7
:1032E000811D089597F99F6780E870E060E0089578
:1032F0009FEF80EC089500240A941616170618060E
:103300000906089500240A941216130614060506E9
:103310000895092E0394000C11F4882352F0BB0F7A
:1033200040F4BF2B11F460FF04C06F5F7F4F8F4FDD
:103330009F4F089557FD9058440F551F59F05F3F18
:1033400071F04795880F97FB991F61F09F3F79F0C7
:1033500087950895121613061406551FF2CF469549
:10336000F1DF08C0161617061806991FF1CF8695CB
:103370007105610508940895E894BB2766277727AF
:10338000CB0197F908950E944E1908F48FEF089524
:103390000E94DB190C9489190E947B1938F00E9455
:1033A000821920F0952311F00C9472190C9478195D
:1033B00011240C94BD190E949A1970F3959FC1F3C2
:1033C000950F50E0551F629FF001729FBB27F00DD3
:1033D000B11D639FAA27F00DB11DAA1F649F662728
:1033E000B00DA11D661F829F2227B00DA11D621F77
:1033F000739FB00DA11D621F839FA00D611D221F31
:10340000749F3327A00D611D231F849F600D211D14
:10341000822F762F6A2F11249F5750409AF0F1F097
:1034200088234AF0EE0FFF1FBB1F661F771F881F00
:1034300091505040A9F79E3F510580F00C947219AD
:103440000C94BD195F3FE4F3983ED4F386957795CD
:103450006795B795F795E7959F5FC1F7FE2B880FA6
:10346000911D9695879597F908950E944E19880B9E
:10347000990B08950F931F93CF93DF93823091059B
:1034800010F482E090E0E091EB08F091EC0830E07D
:1034900020E0B0E0A0E0309799F42115310509F45F
:1034A0004AC0281B390B24303105D8F58A819B810D
:1034B0006115710589F1FB0193838283FE0111C0BF
:1034C000408151810281138148175907E0F0481764
:1034D000590799F4109761F012960C93129713966E
:1034E0001C933296CF01DF91CF911F910F910895D8
:1034F0000093EB081093EC08F4CF2115310551F03F
:103500004217530738F0A901DB019A01BD01DF0121
:10351000F801C1CFEF01F9CF9093EC088093EB084D
:10352000CDCFFE01E20FF31F819391932250310919
:1035300039832883D7CF2091E9083091EA08232BDB
:1035400041F420910801309109013093EA08209359
:10355000E90820910601309107012115310541F458
:103560002DB73EB740910A0150910B01241B350B3A
:10357000E091E908F091EA08E217F307A0F42E1BA6
:103580003F0B2817390778F0AC014E5F5F4F2417C7
:10359000350748F04E0F5F1F5093EA084093E90843
:1035A000819391939FCFF0E0E0E09CCFCF93DF93A6
:1035B0000097E9F0FC01329713821282A091EB0888
:1035C000B091EC08ED0130E020E01097A1F42081EB
:1035D0003181820F931F2091E9083091EA08281762
:1035E000390709F061C0F093EA08E093E908DF9138
:1035F000CF910895EA01CE17DF07E8F54A815B8194
:103600009E0141155105B1F7E901FB83EA83499118
:103610005991C40FD51FEC17FD0761F4808191818A
:103620000296840F951FE901998388838281938193
:103630009B838A83F0E0E0E012968D919C91139732
:103640000097B9F52D913C911197CD010296820F0B
:10365000931F2091E9083091EA082817390739F6B5
:10366000309751F51092EC081092EB08B093EA08ED
:10367000A093E908BCCFD383C28340815181840FDA
:10368000951FC817D90761F44E5F5F4F88819981F4
:10369000480F591F518340838A819B819383828382
:1036A0002115310509F0B0CFF093EC08E093EB0859
:1036B0009ECFFD01DC01C0CF13821282D7CFF894D8
:0236C000FFCF3A
:1036C20001B203B203960000ED088000070C0E1150
:1036D200000000005304B303E003BB041104EF0332
:1036E200030400000000E504DC0C100AE0044309B6
:1036F2008609E0043D094809DB04360900000000A0
:10370200A0077307CF075007C302600751070D0ACE
:0E371200006E616E00696E66006F76660000E4
:00000001FF
