:100000000C948E000C94D10A0C94AA0A0C94B6009D
:100010000C94B6000C94B6000C94B6000C94B60088
:100020000C94B6000C942B0D0C94B6000C94500B51
:100030000C94B6000C94B6000C94700D0C94B600A1
:100040000C945E0A0C94B6000C941E0B0C94F80AE7
:100050000C94B6000C94B6000C94B6000C94B60048
:100060000C940C0C0C94B600436F756C64206E6F8E
:10007000742066696E6420636F6C6F75722073659F
:100080006E736F722E20436865636B2077697269A7
:100090006E672E00436F756C64206E6F7420666906
:1000A0006E64204D6F746F7220536869656C642EA6
:1000B00020436865636B20776972696E672E000064
:1000C000000000240027002A00000000002500286E
:1000D000002B000000000023002600290004040477
:1000E00004040404040202020202020303030303E1
:1000F00003010204081020408001020408102001BE
:10010000020408102000000008000201000003049F
:1001100007000000000000000000B00D11241FBE09
:10012000CFEFD8E0DEBFCDBF11E0A0E0B1E0E0E767
:10013000FDE202C005900D92AC35B107D9F726E07B
:10014000ACE5B1E001C01D92AB34B207E1F710E0BD
:10015000CEE8D0E004C02197FE010E94ED13CD3817
:10016000D107C9F70E94AC0E0C94B6160C9400008F
:100170000F931F93CF93DF93EB01FB01EE0FFF1F54
:10018000E80FF91F608171816F3F760749F4D093C2
:10019000EF04C093EE04DF91CF911F910F9108956A
:1001A0008A010E94B800F8018081918101969183B3
:1001B0008083880F991FFC01E251FB4FD183C083DC
:1001C000EACF08950895833081F028F4813099F0C2
:1001D0008230A9F008958730A9F08830C9F08430C2
:1001E000B1F4809180008F7D03C0809180008F7773
:1001F00080938000089584B58F7784BD089584B579
:100200008F7DFBCF8091B0008F778093B0000895F1
:100210008091B0008F7DF9CFCF93DF93282F30E00E
:10022000F901EB5FFE4F8491F901EF50FF4FD4913C
:10023000F901E352FF4FC491CC23A1F081110E9438
:10024000E300EC2FF0E0EE0FFF1FED52FF4FA59102
:10025000B491EC91ED2381E090E009F480E0DF912E
:10026000CF91089580E090E0FACF1F93CF93DF9372
:10027000282F30E0F901EB5FFE4F8491F901EF5038
:10028000FF4FD491F901E352FF4FC491CC23A9F061
:10029000162F81110E94E300EC2FF0E0EE0FFF1FFC
:1002A000E753FF4FA591B4918FB7F894EC911111DA
:1002B00008C0D095DE23DC938FBFDF91CF911F91D3
:1002C0000895DE2BF8CF3FB7F89480917404909195
:1002D0007504A0917604B091770426B5A89B05C05B
:1002E0002F3F19F00196A11DB11D3FBFBA2FA92FB5
:1002F000982F8827BC01CD01620F711D811D911DB2
:1003000042E0660F771F881F991F4A95D1F708951D
:100310008F929F92AF92BF92CF92DF92EF92FF9215
:100320004B015C010E9463016B017C010E9463012F
:100330006C197D098E099F09683E734081059105FE
:10034000A8F321E0821A9108A108B10888EEC80E2E
:1003500083E0D81EE11CF11C81149104A104B104B6
:1003600029F7FF90EF90DF90CF90BF90AF909F90D4
:100370008F90089582E00E940C0121E0892B09F4FE
:1003800020E020935D0183E00E940C0181E08093D6
:100390006C0408950895AF92BF92CF92DF92EF92CE
:1003A000FF920F931F93CF93DF936C017B018B011F
:1003B000040F151FEB015E01AE18BF08C017D1076F
:1003C00059F06991D601ED91FC910190F081E02DF9
:1003D000C6010995892B79F7C501DF91CF911F914E
:1003E0000F91FF90EF90DF90CF90BF90AF90089566
:1003F000FC01538D448D252F30E0842F90E0821B2B
:10040000930B541710F0CF96089501970895FC01AF
:10041000918D828D981761F0A28DAE0FBF2FB11D07
:100420005D968C91928D9F5F9F73928F90E008955F
:100430008FEF9FEF0895FC01918D828D981731F019
:10044000828DE80FF11D858D90E008958FEF9FEF6D
:100450000895FC01918D228D892F90E0805C9F4F43
:10046000821B91098F739927089582E195E00E947C
:10047000290221E0892B09F420E0822F089580E0F1
:1004800090E0892B29F00E94350281110C94000024
:100490000895FC01A48DA80FB92FB11DA35ABF4F19
:1004A0002C91848D90E001968F739927848FA68973
:1004B000B7892C93A089B1898C91837080648C93C7
:1004C000938D848D981306C00288F389E02D808176
:1004D0008F7D80830895EF92FF920F931F93CF93A8
:1004E000DF93EC0181E0888F9B8D8C8D98131AC06F
:1004F000E889F989808185FF15C09FB7F894EE8956
:10050000FF896083E889F9898081837080648083B2
:100510009FBF81E090E0DF91CF911F910F91FF90FD
:10052000EF900895F62E0B8D10E00F5F1F4F0F73A5
:100530001127E02E8C8D8E110CC00FB607FCFACF60
:10054000E889F989808185FFF5CFCE010E944902B3
:10055000F1CFEB8DEC0FFD2FF11DE35AFF4FF08231
:100560009FB7F8940B8FEA89FB8980818062CFCF97
:10057000CF93DF93EC01888D8823B9F0AA89BB89DA
:10058000E889F9898C9185FD03C0808186FD0DC0C5
:100590000FB607FCF7CF8C9185FFF2CF808185FFE6
:1005A000EDCFCE010E944902E9CFDF91CF910895AE
:1005B00060E070E080E592E4089560E070E080ED36
:1005C00092E40895089520917F01260F3327331F69
:1005D00021323105ECF42091C404FC0190E080E06C
:1005E000243069F082E00895A0917F012191AC014F
:1005F000415A5E4FA40FB52FB11D2C93019686175B
:1006000098F380917F01680F60937F0180E00895E7
:1006100081E008951092C40481E08093C304109295
:100620009E0461E082E10E94350161E083E10E9465
:100630003501E9EBF0E080818E7F808380818D7FC2
:10064000808388E48093B80085E48093BC0008959B
:10065000CF93DF9391E090935E018823B9F0C0912E
:10066000B800D091BA008091BC008A7B8093BC0016
:1006700060E082E10E94350160E083E10E94350183
:100680000E940A03D093BA00C093B800DF91CF91C3
:1006900008958F929F92AF92BF92CF92DF92EF9286
:1006A000FF920F931F93CF93DF93D091ED04D1323C
:1006B00008F0D7C0182FC091EC040E9463016B01B1
:1006C0007C018091C40481116BC082E08093C404DA
:1006D0001093C3048FEF8093C2041092C104D0938F
:1006E000C004ACECB4E0E0EAF4E080E0D81391C0E0
:1006F00010929F0480919F04CC0FC82BC0939F043D
:1007000080919E04813009F088C010929E040E945E
:1007100063016B017C0180919F048093BB008091F9
:10072000C6049091C704A091C804B091C904892B54
:100730008A2B8B2BA1F00E9463010091C6041091BB
:10074000C7042091C8043091C9046C197D098E0931
:100750009F09061717072807390708F442C0809138
:10076000BC0083FDD8CF85EC8093BC000E94630160
:100770006B017C018091C404823009F450C08091E7
:10078000C2048F3F09F46FC08091C204803209F423
:100790006CC08091C204803309F469C084E026C033
:1007A0008091C6049091C704A091C804B091C90477
:1007B000892B8A2B8B2B09F484CF0E9463018090B4
:1007C000C6049090C704A090C804B090C9046C19E6
:1007D0007D098E099F0986169706A806B90608F0B6
:1007E00070CF8091C5040E94280385E01092CB044D
:1007F0001092ED041092CA04DF91CF911F910F91D6
:10080000FF90EF90DF90CF90BF90AF909F908F9030
:1008100008959D9191938F5F69CF85EEA5CF8091CB
:10082000C6049091C704A091C804B091C904892B53
:100830008A2B8B2B09F49ECF0E9463010091C60482
:100840001091C7042091C8043091C9046C197D0926
:100850008E099F09061717072807390708F08ACF5E
:10086000C0CF81E0C3CF80E0C1CF82E0BFCF83E0C3
:10087000BDCFCF93DF93EC018B818823A1F08881DA
:1008800091E09093CA048093EC041092CB041092F0
:10089000ED0481E00E94490391E0811190E0892FED
:1008A000DF91CF91089510927D0410927C041092F4
:1008B000CB041092ED040E940A0381EE90E0909325
:1008C0007B0480937A0482EE90E090937904809385
:1008D000780481E08B83CE010E943904982F811126
:1008E000CECFDDCF8F929F92AF92BF92CF92DF9209
:1008F000EF92FF920F931F93CF93DF93D82FC62FC2
:10090000142F613208F09CC00E9463016B017C01CE
:100910008091C40481116FC081E08093C40410935E
:10092000C3049FEF9093C2041092C1049C0F909354
:10093000C00480939F0480919F04DD0FD82BD09337
:100940009F0480919E04813009F07CC010929E0427
:100950000E9463016B017C0180919F048093BB0026
:100960008091C6049091C704A091C804B091C904B5
:10097000892B8A2B8B2BA1F00E9463010091C60466
:100980001091C7042091C8043091C9046C197D09E5
:100990008E099F09061717072807390708F44CC066
:1009A0008091BC0083FDD8CF85EC8093BC000E9471
:1009B00063016B017C018091C404813009F444C05F
:1009C0008091C1048C1710F4C091C104E0EAF4E0F6
:1009D000AEE7B4E080E08C1359C08C2FDF91CF914B
:1009E0001F910F91FF90EF90DF90CF90BF90AF904D
:1009F0009F908F9008958091C6049091C704A09114
:100A0000C804B091C904892B8A2B8B2B09F480CFA1
:100A10000E9463018090C6049090C704A090C8040F
:100A2000B090C9046C197D098E099F098616970636
:100A3000A806B90608F06CCF8091C5040E9428036F
:100A4000C0E0CBCF85EEB1CF8091C6049091C704B2
:100A5000A091C804B091C904892B8A2B8B2B09F46F
:100A6000AACF0E9463010091C6041091C70420918F
:100A7000C8043091C9046C197D098E099F090617B5
:100A800017072807390708F096CFD6CF91919D9385
:100A90008F5FA1CF0895E0917D0480917C04E817D9
:100AA00030F4F0E0E258FB4F808190E008958FEF42
:100AB0009FEF089590917D0480917C042FEF3FEF8C
:100AC000981748F4E92FF0E0E258FB4F208130E01E
:100AD0009F5F90937D04C901089580917C0490915B
:100AE0007D04891B990B0895CF92DF92EF92FF92BC
:100AF0000F931F93CF93DF937C01CB018A01209149
:100B0000CA04222389F0EB016B01C40ED51ECC155B
:100B1000DD0569F06991D701ED91FC910190F081BB
:100B2000E02DC7010995F3CF642F0E94E302C801AD
:100B3000DF91CF911F910F91FF90EF90DF90CF90B9
:100B40000895CF93DF931F92CDB7DEB769832091CD
:100B5000CA042223F9F02091ED04203258F021E05C
:100B600030E0FC013383228390E080E00F90DF913E
:100B7000CF9108958091CB04E82FF0E0E453FB4F30
:100B8000998190838F5F8093CB048093ED0481E003
:100B900090E0ECCF61E0CE0101960E94E302F7CF36
:100BA00090E080E008951F93CF93DF93DC011496CB
:100BB000ED91FC91E417F50710F490E01FC0122F9F
:100BC000EA01FC0181819281208131E03093CA04E5
:100BD0002093EC041092CB041092ED04DC01ED9113
:100BE000FC910280F381E02D0995C817D90729F7F8
:100BF000812F0E94490391E08111DFCF892FDF917E
:100C0000CF911F910895CF93DF9300D0CDB7DEB77A
:100C1000806889836A8321E042E050E0BE016F5F13
:100C20007F4F8091FB059091FC050E94D3050F90AA
:100C30000F90DF91CF910895CF93DF9300D0CDB780
:100C4000DEB789836A8321E042E050E0BE016F5F36
:100C50007F4F80914506909146060E94D3050F90E4
:100C60000F90DF91CF910895CF93DF9300D000D004
:100C70001F92CDB7DEB7660F660F6A5F69831A826F
:100C80005B832C833D8321E045E050E0BE016F5F34
:100C90007F4FFC01818192810E94D3050F900F90BC
:100CA0000F900F900F90DF91CF910895FC01668314
:100CB00080E1689F900111248381948150E040E09D
:100CC0006081CF960C943406CF92DF92EF92FF9220
:100CD0001F93CF93DF937C01162F6A01E901DC019A
:100CE00014968D919C911597892BD1F11B969C910F
:100CF0001B971C968C911C979CBD8DBD60E0179630
:100D00008C910E94350110681EBD00000DB407FED5
:100D1000FDCF8EB5F60180818EBDCE01019741F0E9
:100D200031810DB407FEFDCF2EB53EBD2193F6CF28
:100D30002197CC0DDD1D0DB407FEFDCF8EB5888348
:100D400061E0D70117968C910E94350181E090E017
:100D5000DF91CF911F91FF90EF90DF90CF9008959A
:100D6000F70182819381268131E03093CA04209378
:100D7000EC041092CB041092ED04DC01ED91FC9197
:100D80000190F081E02D099580E00E9449038111D6
:100D900021C041E06C2FF70186810E9472041092FD
:100DA0007D0480937C048C171D06B9F4CC0DDD1DE9
:100DB000D70112968D919C91DC01ED91FC910284FA
:100DC000F385E02D0995F60181936F01CE17DF07BA
:100DD00079F7BCCF8FEF9FEFBBCF90E080E0B8CF2B
:100DE000CF93DF931F92CDB7DEB721E030E0AE01A5
:100DF0004F5F5F4F6EE10E946406019731F4898175
:100E000090E00F90DF91CF9108958FEF9FEFF9CF92
:100E10000E94F00682FB882780F990E008950E94E6
:100E2000F0068695817090E008950E94F00681702A
:100E3000992708950F931F93CF93DF9300D0CDB7D9
:100E4000DEB78B0122E030E0AE014F5F5F4F60E222
:100E50000E946406009781F440E050E060EC7FE778
:100E6000F80140835183628373830F900F90DF9169
:100E7000CF911F910F91089569817A81072E000CFF
:100E8000880B990B0E94981420E030E040E85DE365
:100E90000E94241520E030E048EC51E40E94F41355
:100EA000F801608371838283938381E090E0DDCFDA
:100EB000CF92DF92EF92FF920F931F93CF93DF9326
:100EC00000D000D000D0CDB7DEB76B017A01890128
:100ED00026E030E0AE014F5F5F4F62E20E946406A1
:100EE000009711F540E050E060EC7FE7F6014083A9
:100EF000518362837383F7014083518362837383D9
:100F0000F801408351836283738326960FB6F89469
:100F1000DEBF0FBECDBFDF91CF911F910F91FF902C
:100F2000EF90DF90CF90089569817A81072E000CB1
:100F3000880B990B0E94981420E030E04AEF54E4AB
:100F40000E94241520E030E040E058E30E94241580
:100F5000F60160837183828393836B817C81072E8A
:100F6000000C880B990B0E94981420E030E04AEFA7
:100F700054E40E94241520E030E040E058E30E9451
:100F80002415F70160837183828393836D817E8151
:100F9000072E000C880B990B0E94981420E030E07B
:100FA0004AEF54E40E94241520E030E040E058E38A
:100FB0000E942415F801608371838283938381E00A
:100FC00090E0A3CFCF92DF92EF92FF920F931F9307
:100FD000CF93DF9300D000D000D0CDB7DEB76B0148
:100FE0007A01890126E030E0AE014F5F5F4F68E291
:100FF0000E946406009711F540E050E060EC7FE746
:10100000F6014083518362837383F70140835183E8
:1010100062837383F80140835183628373832696CE
:101020000FB6F894DEBF0FBECDBFDF91CF911F91F9
:101030000F91FF90EF90DF90CF90089569817A81B2
:10104000072E000C880B990B0E94981420E030E0CA
:1010500040E850E40E94241520E030E040E058E3EE
:101060000E942415F60160837183828393836B81D0
:101070007C81072E000C880B990B0E94981420E0AD
:1010800030E040E850E40E94241520E030E040E0E9
:1010900058E30E942415F701608371838283938350
:1010A0006D817E81072E000C880B990B0E9498148D
:1010B00020E030E040E850E40E94241520E030E0D9
:1010C00040E058E30E942415F80160837183828315
:1010D000938381E090E0A3CF5F926F927F928F9293
:1010E0009F92AF92BF92CF92DF92EF92FF920F93B7
:1010F0001F93CF93DF937C013A01690120E041E027
:1011000050E00E94D305582E882309F450C010E007
:1011100000E0D70114968D919C91E601C01BD10B84
:101120008C179D0708F4EC0141E0C6018C1B9D0B58
:101130000817190708F440E06C2FF70180810E941E
:10114000720410927D0480937C048C171D0679F53F
:101150004301800E911E5401C501881999098C170D
:101160009D0778F4D70111968D919C91DC01ED914A
:10117000FC910284F385E02D0995F50181935F01CF
:10118000EBCF0C0F1D1F0C151D0518F2852DDF91DF
:10119000CF911F910F91FF90EF90DF90CF90BF9074
:1011A000AF909F908F907F906F905F900895512C9B
:1011B000EDCFCF93DF9300D0CDB7DEB71A8219827F
:1011C0008068898322E030E0AE014F5F5F4FBA0153
:1011D0008091FB059091FC050E946C0889819A81A1
:1011E0000F900F90DF91CF910895CF93DF93EC0193
:1011F0008B819C8130E020E050E040E06A81CF9616
:101200000E9434068B819C8130E020E040E050E178
:101210006981CF96DF91CF910C943406FC01019047
:101220000020E9F73197AF01481B590BBC0182E15F
:1012300095E00C94CB010F931F93CF93DF938C0118
:10124000D0E0C0E0F801EC0FFD1F6491662341F08F
:1012500082E195E00E946B02892B11F02196F2CF7A
:1012600089E491E00E940E098C0F9D1FDF91CF91C0
:101270001F910F9108958F929F92AF92BF920F93FB
:101280001F93CF93DF93CDB7DEB7A1970FB6F89436
:10129000DEBF0FBECDBF19A2423008F44AE08E0176
:1012A0000F5D1F4F842E912CB12CA12CA501940110
:1012B0000E94A313E62FB901CA01EA30F4F4E05DFD
:1012C000D801EE938D01232B242B252B79F790E069
:1012D00080E0109719F0CD010E940E09A1960FB67B
:1012E000F894DEBF0FBECDBFDF91CF911F910F915C
:1012F000BF90AF909F908F900895E95CE1CF0C94E0
:101300002D16FF920F931F93CF93DF931F92CDB7AC
:10131000DEB78091FB059091FC05009711F00E94CB
:101320002D1686E090E00E9491158C0189E2F8016B
:1013300080838CEB95E092838183138280E290E03E
:10134000958384831093FC050093FB0510927D0424
:1013500010927C041092CB041092ED040E940A03B8
:1013600081EE90E090937B0480937A0482EE90E08B
:10137000909379048093780481E0F8018383C80115
:101380000E943904182F811109C010E0812F0F909D
:10139000DF91CF911F910F91FF90089582E989838A
:1013A00021E030E0AE014F5F5F4FBA018091FB0555
:1013B0009091FC050E946C0889818D3421F0843461
:1013C00011F0803111F781E08093FD050091000656
:1013D000602F0E940306009300060091FE05F09026
:1013E000FF058091FD05811102C00E948109602FD7
:1013F0008FE00E9403060093FE05F092FF0561E076
:1014000080E00E94030663E070E080E090E00E94CC
:10141000880163E080E00E9403068091000620E0DE
:1014200031E0281B31094CE0429FC001439F900DE1
:10143000112465E070E00E94C5136F5F7F4F072E97
:10144000000C880B990B0E948801A0CF85ED80933A
:10145000BC008091C6049091C704A091C804B091CB
:10146000C9040796A11DB11D23E0B695A7959795D0
:1014700087952A95D1F72091BC0024FD03C01092D6
:10148000C40408954091C6045091C7046091C804F3
:101490007091C904452B462B472B69F30097A10592
:1014A000B10541F02AE22A95F1F700C00197A109A0
:1014B000B109E1CF8091C5040C9428031F920F92CB
:1014C0000FB60F9211242F933F938F939F93AF9357
:1014D000BF938091700490917104A0917204B091B7
:1014E000730430916F0429E0230F2D3768F50396BC
:1014F000A11DB11D3FE336BD20936F04809370049E
:1015000090937104A0937204B09373048091740457
:1015100090917504A0917604B09177040196A11D75
:10152000B11D8093740490937504A0937604B093D6
:101530007704BF91AF919F918F913F912F910F9021
:101540000FBE0F901F9018952CE8230F0496A11D35
:10155000B11DD0CF1F920F920FB60F9211242F936F
:101560003F934F935F936F937F938F939F93AF932B
:10157000BF93EF93FF93E0910201F091030109956E
:10158000FF91EF91BF91AF919F918F917F916F915B
:101590005F914F913F912F910F900FBE0F901F9031
:1015A00018951F920F920FB60F9211242F933F930D
:1015B0004F935F936F937F938F939F93AF93BF935B
:1015C000EF93FF93E0910001F09101010995FF91E4
:1015D000EF91BF91AF919F918F917F916F915F91AB
:1015E0004F913F912F910F900FBE0F901F90189524
:1015F0001F920F920FB60F9211242F933F934F9388
:101600005F936F937F938F939F93AF93BF93EF936A
:10161000FF9382E195E00E944902FF91EF91BF9113
:10162000AF919F918F917F916F915F914F913F917A
:101630002F910F900FBE0F901F9018951F920F9231
:101640000FB60F9211242F938F939F93EF93FF93D5
:10165000E0912205F09123058081E0912805F09129
:10166000290582FD1BC0908180912B058F5F8F73B0
:1016700020912C05821741F0E0912B05F0E0EE5E01
:10168000FA4F958F80932B05FF91EF919F918F914A
:101690002F910F900FBE0F901F9018958081F4CF5F
:1016A0001F920F920FB60F9211242F933F934F93D7
:1016B0005F936F937F938F939F93AF93BF93CF93DA
:1016C000DF93EF93FF938091A201C091EC05D0E0EE
:1016D00087FF24C010928500109284008091A2019F
:1016E0008F5F8093A2018091A201082E000C990BBC
:1016F0008C179D0724F48091A2018C30C4F1809155
:10170000840090918500049680349C4908F47AC046
:101710008091840090918500049676C08091A2010A
:10172000082E000C990B8C179D07C4F6E091A201BE
:101730008E2FEE0F990BFC01EE0FFF1FE80FF91F24
:10174000E853FA4F808186FFC9CFE091A2018E2F26
:10175000EE0F990BFC01EE0FFF1FE80FF91FE85386
:10176000FA4F808160E08F730E943501B7CF2091DE
:10177000840030918500E091A2018E2FEE0F990B2D
:10178000FC01EE0FFF1FE80FF91FE853FA4F8181AC
:101790009281820F931F9093890080938800E0913B
:1017A000A2018E2FEE0F990BFC01EE0FFF1FE80F29
:1017B000F91FE853FA4F808186FF11C0E091A20122
:1017C0008E2FEE0F990BFC01EE0FFF1FE80FF91F94
:1017D000E853FA4F808161E08F730E943501FF91D9
:1017E000EF91DF91CF91BF91AF919F918F917F91B9
:1017F0006F915F914F913F912F910F900FBE0F907E
:101800001F90189580E49CE990938900809388004C
:101810008FEF8093A201E3CF1F920F920FB60F922A
:1018200011242F933F934F935F936F937F938F93E5
:101830009F93AF93BF93EF93FF938091B900887FFD
:10184000803609F44AC0F0F5883209F4A7C018F5CB
:10185000803109F49BC0B8F4882309F4F9C08830BA
:1018600009F494C0FF91EF91BF91AF919F918F9137
:101870007F916F915F914F913F912F910F900FBE8C
:101880000F901F901895883109F488C0803251F765
:101890008093C20414C0803409F49DC040F48033A6
:1018A000B9F38833F9F68093C20485ECB0C0803573
:1018B00009F485C0883509F496C0883499F60E94E9
:1018C000260AD0CF883909F48CC038F5883729F03A
:1018D00050F4883611F0803729F683E08093C404F1
:1018E0001092A10157C0883809F47BC0803919F0E3
:1018F000803809F0B7CF8091A101803208F071C023
:10190000E091A10181E08E0F8093A1018091BB0045
:10191000F0E0EF57FE4F80833DC0803B39F0E0F4AC
:10192000803A09F479C0883A09F09CCF84E080932A
:10193000C4041092800110927F01E0917A04F0912A
:101940007B04099580917F0181110FC081E0809314
:101950007F0110925F0109C0803C09F4A6CF883C4A
:1019600009F4A3CF883B09F07DCFE091800181E0AD
:101970008E0F80938001F0E0E15AFE4F80818093CA
:10198000BB009091800180917F0129C080919F04CC
:101990008093BB0085EC8093BC0064CF9091C10420
:1019A0008091C004981758F5E091C10481E08E0F32
:1019B0008093C104F0E0E056FB4F8081E9CFE091D5
:1019C000C10481E08E0F8093C1048091BB00F0E0E0
:1019D000E056FB4F80839091C1048091C00498171A
:1019E000C8F285E8D8CFE091C10481E08E0F8093E2
:1019F000C1048091BB00F0E0E056FB4F80838091F2
:101A0000C30481115CCF81E080939E0484EA8093BB
:101A1000BC001092C40426CF85EC8093BC001092C9
:101A2000C4048091A101803230F4E091A101F0E082
:101A3000EF57FE4F10826091A10170E0E0917804B1
:101A4000F091790481E891E009951092A1010ACF03
:101A50001092C20434CF1F920F920FB60F9211242E
:101A60002F933F934F935F936F937F938F939F93A6
:101A7000AF93BF93EF93FF9380915C018F5F80934F
:101A80005C018F31E0F0E0910306F091040686815D
:101A9000E0910106F09102069681890F9927991F1E
:101AA000892B11F460E006C086E00E940C0161E021
:101AB000892BC1F786E00E94350110925C01FF91ED
:101AC000EF91BF91AF919F918F917F916F915F91B6
:101AD0004F913F912F910F900FBE0F901F9018952F
:101AE0001F920F920FB60F9211248F9387B58054D7
:101AF00087BD8F910F900FBE0F901F901895CF93B9
:101B0000DF9390E0FC01EF50FF4F249183529F4FF1
:101B1000FC0184918823D1F090E0880F991FFC018B
:101B2000E154FF4FA591B491FC01E753FF4FC591DC
:101B3000D49161110EC09FB7F8948C91E22FE0957B
:101B40008E238C932881E223E8839FBFDF91CF917E
:101B500008958FB7F894EC91E22BEC938FBFF6CFFA
:101B6000109215051092140588EE93E0A0E0B0E005
:101B70008093160590931705A0931805B093190547
:101B80002FE031E0309313052093120525EC30E06F
:101B900030931F0520931E0524EC30E0309321057F
:101BA0002093200520EC30E030932305209322057C
:101BB00021EC30E0309325052093240522EC30E021
:101BC000309327052093260526EC30E03093290535
:101BD0002093280510922B0510922C0510922D05AC
:101BE00010922E0521E231E03093B0052093AF052D
:101BF0002CEB35E03093B2052093B1051092B4057B
:101C00001092B3052AE62093B50520E52093BA0586
:101C10001092BB051092BF051092BE058093C005BF
:101C20009093C105A093C205B093C3058BE391E0E7
:101C30009093BD058093BC05E8E0F6E084E296E071
:101C400014821382158212821182108216823796B4
:101C50008E179F07A9F71092300610923306109244
:101C60002F0610922E0610924006109243061092F4
:101C70003F0610923E06109246061092450680E4FA
:101C80008093440680E68093050680910D068823A4
:101C900009F44FC088E096E0909304068093030611
:101CA00080911406811112C081E08093140685E0B2
:101CB00096E090931306809312068DE080930F06B2
:101CC0008BE0809310068CE0809311068FE096E005
:101CD00090930206809301061092FC051092FB057A
:101CE0001092FD059FEF9093000621E030E03093C5
:101CF000FF052093FE058AE0E0EFF5E0DF011D928D
:101D00008A95E9F78091EC058C3018F591E0980FF1
:101D10009093EC058093ED0590E0FC01EE0FFF1F22
:101D2000E80FF91FE853FA4F88EB9BE09283818319
:101D3000089585E096E090930C0680930B0688E06A
:101D4000809308068AE08093090689E080930A065A
:101D5000A1CF9093ED050895CF93DF93CDB7DEB774
:101D6000E8970FB6F894DEBF0FBECDBF789484B568
:101D7000826084BD84B5816084BD85B5846085BD85
:101D80008FE386BD80916E00816080936E0010921B
:101D90008100809181008260809381008091810028
:101DA00081608093810080918000816080938000B9
:101DB0008091B10084608093B1008091B000816017
:101DC0008093B00080917A00846080937A00809143
:101DD0007A00826080937A0080917A00816080939B
:101DE0007A0080917A00806880937A001092C10016
:101DF000E0912205F091230582E08083E0911E05A9
:101E0000F0911F051082E0912005F09121058FECE3
:101E1000808310922A05E0912605F091270586E03F
:101E20008083E0912405F091250580818061808385
:101E3000E0912405F0912505808188608083E09100
:101E40002405F0912505808180688083E091240538
:101E5000F091250580818F7D8083D0900506D092FA
:101E6000440686E090E00E9491157C01DC01DC9242
:101E70008CEB95E012969C938E93119713961C927F
:101E8000139780E290E015969C938E931497F092AE
:101E90004606E092450610927D0410927C04109252
:101EA000CB041092ED040E940A0381EE90E090931F
:101EB0007B0480937A0482EE90E09093790480937F
:101EC000780481E0F7018383C7010E9439048823E5
:101ED00009F434C460E080E00E941C0680E496E0CF
:101EE0009093070680930606198221E030E0AE0148
:101EF0004F5F5F4FBA0180914506909146060E9460
:101F00006C08F9806F2D6F76606180E00E941C067E
:101F100063E08EEF0E941C066F2D80E00E941C067D
:101F200065E070E080E090E00E9488016F2D616ABA
:101F300080E00E941C06F12C30E020E050E040E000
:101F40006F2D84E496E00E943406F394F0E1FF12D2
:101F5000F3CF85E591E00E940E0989E491E00E94AB
:101F60000E090E948109882309F498C3F89480EC33
:101F700087BD80916E00836080936E001092B000E8
:101F80001092B1008091B10087608093B100809180
:101F90007000816080937000789460E081E00E941E
:101FA0007F0D60E082E00E947F0D60E083E00E9490
:101FB0007F0D60E087E00E947F0D61E084E00E9479
:101FC0007F0D61E085E00E947F0D61E086E00E9468
:101FD0007F0D2AEB31E030930101209300018091C5
:101FE0006900836080936900E89A3093030120932D
:101FF0000201809169008C6080936900E99A1092D7
:102000006E0410926D04E9EDF1E086E09F012C5D15
:102010003F4F818310823296E217F307D1F744E0F5
:10202000E136F40799F78EE28093DF018093450251
:1020300097E4909301029093230280930702809388
:102040008F0295E590930D029093FB0221E220937D
:1020500027022093490222E220932F022093D902E3
:1020600028E620934D0220936F028093750280939F
:10207000B90290937F0290936D0386E680930B03E1
:1020800080932D0383EB809317038093050483E2F1
:10209000809331038093530385E2809337038093C9
:1020A000BF0388E480935703809379038EE1809384
:1020B000590380939D038BE88093850380932F04BD
:1020C0008DE28093C9038093EB0387E28093CB0377
:1020D00080930F048AE2809315048093370486E28C
:1020E00080933B0480935D0421E02093E00185E030
:1020F000809346021092020292E09093240283E0C1
:102100008093080234E03093900220930E02809373
:10211000FC021092280290934A02209330023093DE
:10212000DA0210924E0290937002809376023093FE
:10213000BA022093800280936E0310920C03909356
:102140002E03209318038093060410923203909379
:102150005403209338038093C00310925803909344
:102160007A0380935A0330939E03209386038093CF
:1021700030049093CA033093EC032093CC038093F4
:102180001004109216049093380480933C0430930A
:102190005E049E012B5D3F4FD901E3EAF1E084EF3D
:1021A00091E0819391931D9251E0E73CF507C9F7C7
:1021B0001092A4011092A301BEEEEB2EB4E0FB2E10
:1021C00082E195E0F7014FEF5FEF419351938E1756
:1021D0009F07D9F7FE0131968FEF9FEF819391937F
:1021E0002E173F07D9F761E170E066246394A4E2FB
:1021F0007A2EE3EAF1E0D90144EF51E090E080E08B
:10220000DD90D11007C0C080D1804C155D0514F061
:102210008C01A601019632968231910589F7F90168
:10222000E00FF11F6082709E4001719E900C11249E
:10223000C801880F991FDC01AD55BE4F5D01290112
:1022400090E080E0F20141912F01411126C0D401BC
:10225000A80FB91FA752BE4FEC91EE23F1F0D501A4
:102260004D915C91443FB1E05B07B9F04E0F511DB9
:10227000DC01AD55BE4FCD90DC9011974C155D053E
:1022800064F4CC24C394D12CCC0EDD1EC80ED91E10
:10229000F601118300834D935C930296843291057D
:1022A00089F66150710909F0A4CF18AE1FAAAE01DA
:1022B000495C5F4F67E070E0CE0101960E94B80074
:1022C000A7ECB1E024E2F701819191917F01289F71
:1022D000F001299FF00D1124AF0147525E4FF70125
:1022E00080819181880F991FFA01E80FF91F818180
:1022F0008D93F0E1EF16F5E0FF0629F780910306D4
:10230000909104060E94F5088091010690910206C2
:102310000E94F50861E086E00E94350130E0232E3E
:1023200030E0332E22E0E22EF12C10E000E080912C
:10233000FD05811102C00E94810984E10E94D90833
:102340006C0186E10E94D90888E10E94D9088AE1DF
:102350000E94D9088091000620E031E0281B310955
:102360004CE0429FC001439F900D112465E070E056
:102370000E94C5136F5F7F4F072E000C880B990BCF
:102380000E9488010C0D1D1DEA94EF2809F08BC1F5
:1023900017FF02C00F5F1F4F15950795B80190E01A
:1023A00080E04AE00E943B0989E491E00E940E0926
:1023B0008EE591E0801B910B8C01BC01990F880B7D
:1023C000990B0E9498146B017C0120916304309159
:1023D000640440916504509166040E94F4134B011B
:1023E0005C018092630490926404A0926504B092B0
:1023F00066048091610490916204B801681B790BB6
:10240000072E000C880B990B0E94981420E030E0F6
:10241000A9010E9424152B013C0120E030E0A90114
:10242000C501B4010E9424154B015C012DEC3CEC6C
:102430004CEC5DE3C701B6010E9424159B01AC0181
:10244000C501B4010E94F4139B01AC01C301B201A8
:102450000E94F4130E94601470936E0460936D04E4
:1024600010936204009361046B01770FEE08FF087C
:102470004AE0C701B601F7FE0DC06DE282E195E0CA
:102480000E946B0266277727CB016C197D098E09A4
:102490009F094AE00E943B0989E491E00E940E09ED
:1024A00000916D0410916E048091030690910406D2
:1024B00060EA70E0601B710B77FDF9C06F3F71053A
:1024C00019F014F06FEF70E00E945606809101063B
:1024D00090910206B80160567F4F77FDEAC06F3FCA
:1024E000710519F014F06FEF70E00E9456068091AC
:1024F0006C04882309F4C6C060E0809103069091C3
:1025000004060E94560660E0809101069091020642
:102510000E94560680916B048111EDC08CE491E01D
:102520000E940E0989E491E00E940E09109267044E
:10253000109268041092690410926A046091040178
:1025400070E06E5F7F4F6370772762507109072ECE
:10255000000C880B990B0E9498142BED3FE049EC7E
:102560005FE30E9424150E9460147B016EEB809152
:102570000306909104060E9456066EEB80910106B8
:10258000909102060E9456068091030690910406DF
:102590000E94F50880910106909102060E94F508BC
:1025A00064E571E080E090E00E94880160E0809145
:1025B0000306909104060E94560660E0809103068F
:1025C000909104060E94560600910306109104069D
:1025D0001E141F040CF06FC0C8010E94F508009182
:1025E000010610910206D80113968D919C911497C3
:1025F00030E020E050E040E011966C91CF960E94D0
:102600003406F8018381948130E020E040E050E11D
:102610006281CF960E94340660EA80910306909111
:1026200004060E94560660EA809101069091020617
:102630000E9456066AEF70E080E090E00E948801F8
:1026400060E080910306909104060E94560660E0C7
:1026500080910106909102060E9456068091030621
:10266000909104060E94F50880910106909102065F
:102670000E94F5081092040180916C04F1E08F270C
:1026800080936C042114310409F44CCE0E9435026D
:10269000882309F447CE0E94000044CE88E690E0EB
:1026A0000E941B09FFCFEE24E394F12C40CE60E0A2
:1026B0000BCF60E01ACFD80113968D919C9114979F
:1026C00030E020E050E040E011966C91CF960E94FF
:1026D0003406F8018381948130E020E040E050E14D
:1026E0006281CF960E943406809101069091020685
:1026F0000E94F50891CF6EE1809103069091040647
:102700000E9456066EE180910106909102060E9499
:10271000560660E777E180E090E00E94880160E083
:1027200080910306909104060E94560660E0809115
:102730000106909102060E945606FFCF84E990E0C0
:102740000E941B09FFCFA1E21A2EAA1BBB1BFD0191
:102750000DC0AA1FBB1FEE1FFF1FA217B307E40780
:10276000F50720F0A21BB30BE40BF50B661F771FD8
:10277000881F991F1A9469F76095709580959095B8
:102780009B01AC01BD01CF01089597FB072E16F404
:10279000009407D077FD09D00E94D91307FC05D01B
:1027A0003EF4909581959F4F0895709561957F4F68
:1027B0000895AA1BBB1B51E107C0AA1FBB1FA61788
:1027C000B70710F0A61BB70B881F991F5A95A9F7DA
:1027D00080959095BC01CD010895EE0FFF1F0590E7
:1027E000F491E02D09945058BB27AA270E940B149E
:1027F0000C94EA140E94DC1438F00E94E31420F0D8
:1028000039F49F3F19F426F40C94D9140EF4E09592
:10281000E7FB0C94D314E92F0E94FB1458F3BA176A
:10282000620773078407950720F079F4A6F50C94E6
:102830001D150EF4E0950B2EBA2FA02D0B01B9013A
:1028400090010C01CA01A0011124FF27591B99F026
:10285000593F50F4503E68F11A16F040A22F232F32
:10286000342F4427585FF3CF469537952795A79582
:10287000F0405395C9F77EF41F16BA0B620B730B29
:10288000840BBAF09150A1F0FF0FBB1F661F771F9A
:10289000881FC2F70EC0BA0F621F731F841F48F44F
:1028A000879577956795B795F7959E3F08F0B0CFD8
:1028B0009395880F08F09927EE0F979587950895BF
:1028C0000E9467146894B1110C941E1508950E941B
:1028D000031588F09F5798F0B92F9927B751B0F09A
:1028E000E1F0660F771F881F991F1AF0BA95C9F794
:1028F00014C0B13091F00E941D15B1E008950C9400
:102900001D15672F782F8827B85F39F0B93FCCF3B2
:10291000869577956795B395D9F73EF49095809510
:10292000709561957F4F8F4F9F4F0895E89409C030
:1029300097FB3EF490958095709561957F4F8F4FF2
:102940009F4F9923A9F0F92F96E9BB279395F69508
:10295000879577956795B795F111F8CFFAF4BB0F86
:1029600011F460FF1BC06F5F7F4F8F4F9F4F16C0EA
:10297000882311F096E911C0772321F09EE8872F74
:10298000762F05C0662371F096E8862F70E060E030
:102990002AF09A95660F771F881FDAF7880F9695A9
:1029A000879597F9089597F99F6780E870E060E050
:1029B00008959FEF80EC089500240A9416161706D8
:1029C00018060906089500240A9412161306140620
:1029D00005060895092E0394000C11F4882352F083
:1029E000BB0F40F4BF2B11F460FF04C06F5F7F4F3B
:1029F0008F4F9F4F089557FD9058440F551F59F022
:102A00005F3F71F04795880F97FB991F61F09F3FDB
:102A100079F087950895121613061406551FF2CF04
:102A20004695F1DF08C0161617061806991FF1CF54
:102A300086957105610508940895E894BB2766277B
:102A40007727CB0197F908950E9437150C94EA1463
:102A50000E94DC1438F00E94E31420F0952311F05A
:102A60000C94D3140C94D91411240C941E150E94A8
:102A7000FB1470F3959FC1F3950F50E0551F629FB3
:102A8000F001729FBB27F00DB11D639FAA27F00DC7
:102A9000B11DAA1F649F6627B00DA11D661F829FEE
:102AA0002227B00DA11D621F739FB00DA11D621FD3
:102AB000839FA00D611D221F749F3327A00D611DF0
:102AC000231F849F600D211D822F762F6A2F1124D2
:102AD0009F5750409AF0F1F088234AF0EE0FFF1F05
:102AE000BB1F661F771F881F91505040A9F79E3F5C
:102AF000510580F00C94D3140C941E155F3FE4F341
:102B0000983ED4F3869577956795B795F795E795B1
:102B10009F5FC1F7FE2B880F911D9695879597F9BA
:102B200008950F931F93CF93DF938230910510F494
:102B300082E090E0E0914906F0914A0630E020E022
:102B4000B0E0A0E0309799F42115310509F44AC0AE
:102B5000281B390B24303105D8F58A819B816115FA
:102B6000710589F1FB0193838283FE0111C04081CD
:102B700051810281138148175907E0F0481759071E
:102B800099F4109761F012960C93129713961C9378
:102B90003296CF01DF91CF911F910F91089500934D
:102BA000490610934A06F4CF2115310551F042171A
:102BB000530738F0A901DB019A01BD01DF01F801DB
:102BC000C1CFEF01F9CF90934A0680934906CDCF4C
:102BD000FE01E20FF31F8193919322503109398353
:102BE0002883D7CF2091470630914806232B41F404
:102BF0002091070130910801309348062093470641
:102C000020910501309106012115310541F42DB7C0
:102C10003EB74091090150910A01241B350BE09108
:102C20004706F0914806E217F307A0F42E1B3F0B6E
:102C30002817390778F0AC014E5F5F4F241735072E
:102C400048F04E0F5F1F509348064093470681930C
:102C500091939FCFF0E0E0E09CCFCF93DF9300977C
:102C6000E9F0FC01329713821282A0914906B091DB
:102C70004A06ED0130E020E01097A1F42081318177
:102C8000820F931F20914706309148062817390775
:102C900009F061C0F0934806E0934706DF91CF91B9
:102CA0000895EA01CE17DF07E8F54A815B819E01AE
:102CB00041155105B1F7E901FB83EA834991599127
:102CC000C40FD51FEC17FD0761F480819181029636
:102CD000840F951FE90199838883828193819B8367
:102CE0008A83F0E0E0E012968D919C911397009713
:102CF000B9F52D913C911197CD010296820F931F4A
:102D000020914706309148062817390739F6309741
:102D100051F510924A0610924906B0934806A093C6
:102D20004706BCCFD383C28340815181840F951F56
:102D3000C817D90761F44E5F5F4F88819981480FAA
:102D4000591F518340838A819B81938382832115FC
:102D5000310509F0B0CFF0934A06E09349069ECFC3
:102D6000FD01DC01C0CF13821282D7CFF894FFCFD0
:102D7000CA01CA010100004B068000000000006B80
:102D800002CB01F801B802290207021B0200000071
:102D900000E2027F09E207DD0215075807DD020F96
:102DA000071A07D802080700000000A1057405D023
:102DB000054A056D055A054B050D0A005475726EDE
:0C2DC000696E67210048656C6C6F210093
:00000001FF
