:100200000C948A010C94B2010C94B2010C94B201CA
:100210000C94B2010C94B2010C94E8100C94B2014D
:100220000C94B2010C94B2010C94B2010C94B20182
:100230000C9421140C94D7130C9466120C9417137D
:100240000C94B2010C94B2010C94B2010C94B20162
:100250000C9479100C94B2010C94B2010C94B2017C
:100260000C949E100C947C110C94B2010C94B2016D
:100270000C94B2010C942F100C94B2010C94B201A6
:100280000C94B2010C94B2010C94C3100C94541051
:100290000C94CB0F0C9433110C940D110C94B201EF
:1002A000436F756C64206E6F742066696E642063A2
:1002B0006F6C6F75722073656E736F722E2043685A
:1002C00065636B20776972696E672E004661696CA1
:1002D000656420746F20696E697469616C697A6500
:1002E00020494D552100436F756C64206E6F74205A
:1002F00066696E64204D6F746F7220536869656C17
:10030000642E20436865636B20776972696E672E7F
:100310000000CD1411241FBECFEFCDBFDFE3DEBF41
:1003200018E2A0E0B8E2E5EDFFE302C005900D920F
:10033000AC30B107D9F72EE2ACE0B8E201C01D92B3
:10034000A038B207E1F711E0CAE8D1E004C0219774
:10035000FE010E94781CC938D107C9F70E942816EF
:100360000C94501F0C9400010F931F93CF93DF93B5
:10037000EB01FB01EE0FFF1FE80FF91F6081718198
:100380006F3F760749F4C093152CD093162CDF915C
:10039000CF911F910F9108958A010E94B401F80135
:1003A00080819181019680839183880F991FFC0140
:1003B000EB5EF34DC083D183EACFCF93DF93EC01A3
:1003C00089819A81DC01ED91FC910684F785E02D0D
:1003D000099581E08B8389819A81DC01ED91FC9103
:1003E0000688F789E02D6881099589819A81DC0169
:1003F000ED91FC91028CF38DE02D099591E0811136
:1004000090E0892FDF91CF9108950895EF92FF92A8
:100410000F931F93CF93DF937C01EB018B01040FAC
:10042000151FC017D10759F0D701ED91FC91048039
:10043000F581E02D6881C70109958993F2CFDF919D
:10044000CF911F910F91FF90EF9008950F931F93FD
:10045000CF93DF93EC018B018091C008E881F98193
:100460000480F581E02D86FD13C0612FCE01099532
:10047000182FE881F9810480F581E02D602FCE01ED
:100480000995082FC801DF91CF911F910F91089511
:10049000CE010995082FE881F9810480F581E02DCE
:1004A000612FCE010995182FEDCF00006093C4088D
:1004B0008091C30887FFFCCF8091C40808958F9274
:1004C0009F92AF92BF92CF92DF92EF92FF920F93E3
:1004D0001F93CF93DF93FC018085882319F081FF60
:1004E0000EC07894DF91CF911F910F91FF90EF9004
:1004F000DF90CF90BF90AF909F908F90089580FF36
:10050000F1CF82849384A484B584C12CD12C76014C
:1005100010E09401A501B601C701A0E00E946C1C87
:1005200099F1217030E040E050E060E070E080E060
:1005300090E00E946C1CD9F0D0E0C0E0103370F461
:10054000C12FC695C695C69580E2C89FE0011124CB
:10055000C05FDB4F812F8770C80FD11DCF01810F86
:10056000911DDC0152968C919881892B888394018E
:10057000A501B601C70101E00E94511C49015A01C1
:100580006B017C011F5FC5CF86849784A088B188EA
:10059000C12CD12C760110E29401A501B601C7014E
:1005A000A0E00E946C1C09F49DCF217030E040E077
:1005B00050E060E070E080E090E00E946C1CD9F0B8
:1005C000D0E0C0E0103370F4C12FC695C695C69533
:1005D000B0E2CB9FE0011124C05FDB4F812F877019
:1005E000C80FD11DCF01810F911DDC0152968C9156
:1005F0009881892B88839401A501B601C70101E088
:100600000E94511C49015A016B017C011F5FC4CF3C
:10061000FC016F3F710581F1808581FD2DC0603245
:1006200071055CF581E090E002C0880F991F6A9522
:10063000E2F780959095092E000CAA0BBB0B428522
:1006400053856485758584239523A623B7238287E4
:100650009387A487B58782859385A485B585892BE3
:100660008A2B8B2B49F486859785A089B189892BA4
:100670008A2B8B2B09F4108608956052710981E052
:1006800090E002C0880F991F6A95E2F780959095D7
:10069000092E000CAA0BBB0B468557856089718912
:1006A00084239523A623B72386879787A08BB18BB6
:1006B000D2CFFC016F3F7105E9F1603371051CF089
:1006C00082E080870895808581608087603271052F
:1006D000C4F481E090E002C0880F991F6A95E2F7A8
:1006E000092E000CAA0BBB0B4285538564857585CA
:1006F000842B952BA62BB72B82879387A487B5874E
:1007000008956052710981E090E002C0880F991F3E
:100710006A95E2F7092E000CAA0BBB0B468557859C
:1007200060897189842B952BA62BB72B8687978799
:10073000A08BB18B0895E0ECF8E020812E7F208320
:10074000FC0117820895E0ECF8E082818E7F8283BD
:100750000895E0ECF8E08281816082830895FC01D5
:1007600054894589252F30E0842F90E0821B930B1C
:10077000541710F0CF96089501970895FC019289BF
:100780008389981761F0A389AE0FBF2FB11D5996C9
:100790008C9193899F5F9F73938B90E008958FEF67
:1007A0009FEF0895FC0192898389981731F083891E
:1007B000E80FF11D818D90E008958FEF9FEF089570
:1007C000FC0192892389892F90E0805C9F4F821BD6
:1007D00091098F7399270895CF93DF93EC01E881F6
:1007E000F9810680F781E02D0995EC85FD858681EC
:1007F0008F738683EC85FD8585818F7585838B89D5
:100800008A8B198ADF91CF910895CF93DF93FC01F2
:1008100094898589C485D585981306C08D818F7D7F
:100820008D83DF91CF910895A589AE0FBF2FB11DA4
:10083000A75ABF4F2C91858990E001968F73992715
:10084000858B80E48C83A485B58512962C9394893E
:1008500085899813E6CFA485B58515968C91159753
:100860008F7D15968C9387898823D9F2808D80930C
:100870001301178AD6CFDC011C96ED91FC910FB6BF
:1008800007FE03C0258125FD04C0248125FD0C94AD
:1008900005040895EF92FF920F931F93CF93DF9378
:1008A000EC0181E0898B9C898D8998131CC0AC85F3
:1008B000BD8514968C91149785FF15C012966C9384
:1008C000AC85BD8580E414968C93EC85FD8585818F
:1008D0008F7D858381E090E0DF91CF911F910F9113
:1008E000FF90EF9008958091110180FF08C08091E2
:1008F0001301888F8E898093130181E08F8BF62EF0
:100900000C8910E00F5F1F4F0F731127E02E8D89A8
:100910008E1104C0CE010E943B04F9CFEC89EC0F8C
:10092000FD2FF11DE75AFF4FF0820C8BEC85FD8502
:1009300085818062CECFCF93DF93FC012189222372
:10094000C9F0EC018091110180FF08C08091130172
:10095000808F86898093130181E0878BEC85FD85EC
:10096000858185FD03C0848186FD04C0CE010E947F
:100970003B04F4CFDF91CF910895CF93DF9390E0C4
:10098000FC01E353F14820812F3F71F0FC01EA5054
:10099000F148A08130E2A39FD0011124BC5F6130F7
:1009A000710529F411962C93DF91CF910895815E02
:1009B0009048EC01E881EF3F89F0CD014096E80FC7
:1009C000F92FF11D9FB7F89412962C938081623015
:1009D000710539F4886080839FBFE6CFF0E0E0E0E6
:1009E000F1CF877FF8CF282F30E0F901EC55F1489F
:1009F000E081EE2309F1E13021F0F0F0E63098F0EB
:100A000008954091010A215E3048F90120812C5F50
:100A100081E090E001C0880F2A95EAF78095842351
:100A20008093010A089580E1E89FF0011124E05AC3
:100A3000F54F81818F7E81830895FF920F931F93DD
:100A4000CF93DF93082F10E0F801E353F148F080D3
:100A50009FEFF916A1F0EB01893210F40E94F30424
:100A6000F801EA50F148E08180E2E89FF0011124AA
:100A7000FC5F80818F2159F0CD2B39F4F682DF9114
:100A8000CF911F910F91FF900895F582F8CFD80173
:100A9000A15EB0488C91309771F08F3F61F07096F5
:100AA000E80FF11D9FB7F8948081CD2B39F4877F33
:100AB00080839FBFE4CFF0E0E0E0F4CF8860F8CF20
:100AC0000F931F93CF93082F10E0F801E353F148E1
:100AD000C081CF3FA9F00E94F304F801EA50F14829
:100AE000E08180E2E89FF0011124FC5F8085C8234B
:100AF00081E090E009F480E0CF911F910F9108957B
:100B000080E090E0F9CF893210F40C941D0508952F
:100B10000F931F93CF93DF93D82FC62F8091E22D91
:100B20009091E32D009709F44DC0DC01ED91FC910B
:100B30000684F785E02D0091E92D1091EA2D209192
:100B4000EB2D3091EC2D4091ED2D5091EE2D6091DB
:100B5000EF2D7091F02D099570E060E08091E52D0A
:100B60000E9483058091E22D9091E32DDC01ED91AF
:100B7000FC910480F581E02D6D2F09958091E22D87
:100B80009091E32DDC01ED91FC910480F581E02D45
:100B90006C2F099561E070E08091E52D0E9483053E
:100BA0008091E22D9091E32DDC01ED91FC91008884
:100BB000F189E02D099581E090E0DF91CF911F91BF
:100BC0000F9108958091E02D9091E12DDC01ED9140
:100BD000FC910688F789E02D6091E42D09958091BC
:100BE000E02D9091E12DDC01ED91FC910190F081DF
:100BF000E02D6D2F09958091E02D9091E12DDC0184
:100C0000ED91FC910190F081E02D6C2F0995809180
:100C1000E02D9091E12DDC01ED91FC91028CF38DA2
:100C2000E02D099521E090E0811120E0822FC5CFD1
:100C3000893210F40C94BD040895CF92DF92EF92A4
:100C4000FF920F931F93CF93DF93EC016A017B0117
:100C5000022F8989882339F0E881F9810288F38994
:100C6000E02DCE01099598898091E205892B80932A
:100C7000E2051FB7F89460E070E281EA97E0A7010F
:100C800096010E94FB1B69017A018FEFC81AD80AEE
:100C9000E80AF80AF694E794D794C794EC85FD85A2
:100CA00086818D7F8683EC85FD8586818683198A82
:100CB000A09123110A2E000CBB0BA70196010E94E4
:100CC000471C20E034E040E050E00E941D1CEC8511
:100CD000FD85C20ED31EE41EF51EC086D186EC85AE
:100CE000FD850783EC85FD858681806C8683EC8598
:100CF000FD858581806885838E8562E070E00E9435
:100D000018068F8561E070E00E9483058F8561E0A1
:100D100070E00E9418061FBFDF91CF911F910F91C5
:100D2000FF90EF90DF90CF900895CF93DF938FB730
:100D3000F8942091112C3091122C4091132C509149
:100D4000142CE091BA0A9091B60A90FF06C02F5F6A
:100D50003F4F4F4F5F4FE091BA0A8FBFA0910F2CCA
:100D6000B091102CC0910D2CD0910E2C0E943C1CE7
:100D7000EC9F9001ED9F300D1124620F731F811DB8
:100D8000911DDF91CF9108958F929F92AF92BF9264
:100D9000CF92DF92EF92FF924B015C010E94950689
:100DA0006B017C01A8EEB3E0A50194010E943C1CFC
:100DB000C60ED71EE81EF91EC616D706E806F906A7
:100DC00018F40E949506F8CF0E9495066C157D05D3
:100DD0008E059F05C8F3FF90EF90DF90CF90BF90F6
:100DE000AF909F908F900895AF92BF92CF92DF9275
:100DF000EF92FF920F931F93CF93DF936C017B01D0
:100E00008B01040F151FEB015E01AE18BF08C01760
:100E1000D10759F06991D601ED91FC910190F081D3
:100E2000E02DC6010995892B79F7C501DF91CF9196
:100E30001F910F91FF90EF90DF90CF90BF90AF90F8
:100E40000895EF92FF920F931F93CF93DF93C82FD4
:100E5000D0E0A09695E0CC0FDD1F9A95E1F7E984EC
:100E6000F82EFF0CFF0CFF0C01E010E08E2D80230C
:100E7000A9F02F2D210F30E0220F331FF901E75683
:100E8000F34D80819181892B49F00190F081E02D13
:100E9000275C334DD9018D919C9109951F5F000FFF
:100EA000183021F7E986DF91CF911F910F91FF90C4
:100EB000EF90089581E00895AF92BF92CF92DF92B4
:100EC000EF92FF920F931F93CF93DF93EC01D62EF7
:100ED0005A0179018C819D81009709F445C0DC019C
:100EE000ED91FC910684F785E02D0B851C852D8501
:100EF0003E854F85588969897A89099570E060E057
:100F00008F810E9483058C819D816D2D6068DC013D
:100F1000ED91FC910480F581E02D09958C819D81F6
:100F2000DC01ED91FC910084F185E02DA701B50174
:100F3000099561E070E08F810E9483058C819D811D
:100F4000DC01ED91FC910088F189E02D099581E0AB
:100F500090E0DF91CF911F910F91FF90EF90DF9084
:100F6000CF90BF90AF9008958A819B81DC01ED9175
:100F7000FC910688F789E02D6E8109958A819B8115
:100F8000DC01ED91FC910190F081E02D6D2D099532
:100F90008A819B81DC01ED91FC91008CF18DE02D2B
:100FA00060E00995811122C08A819B81DC01ED916D
:100FB000FC91068CF78DE02DA7016E8109958E15A9
:100FC0009F05B9F465018A819B81DC01ED91FC915B
:100FD0000284F385E02D0995F60181936F01CF011D
:100FE0008A199B098E159F0570F3B1CF8FEF9FEF84
:100FF000B0CF90E080E0ADCFCF93DF931F92CDB71D
:10100000DEB721E030E0AE014F5F5F4F0E945C072A
:10101000019731F4898190E00F90DF91CF9108958D
:101020008FEF9FEFF9CF60E070E080E592E40895E4
:101030006EE10E94FC0782FB882780F990E008950A
:101040000F931F93CF93DF9300D0CDB7DEB78B0103
:1010500022E030E0AE014F5F5F4F60E20E945C072C
:10106000009781F440E050E060EC7FE7F8014083B6
:101070005183628373830F900F90DF91CF911F9103
:101080000F91089569817A81072E000C880B990BC6
:101090000E94321D20E030E040E85DE30E94BE1D6A
:1010A00020E030E048EC51E40E948E1CF80160839F
:1010B00071838283938381E090E0DDCF60E070E014
:1010C00080ED92E408956EE10E94FC0786958170A0
:1010D00090E00895CF92DF92EF92FF920F931F93CB
:1010E000CF93DF93CDB7DEB72697CDBFDEBF6B01C1
:1010F0007A01890126E030E0AE014F5F5F4F62E286
:101100000E945C070097F9F440E050E060EC7FE754
:10111000F6014083518362837383F70140835183D7
:1011200062837383F80140835183628373832696BD
:10113000CDBFDEBFDF91CF911F910F91FF90EF9058
:10114000DF90CF90089569817A81072E000C880B7B
:10115000990B0E94321D20E030E04AEF54E40E94D7
:10116000BE1D20E030E040E058E30E94BE1DF601C5
:1011700060837183828393836B817C81072E000C53
:10118000880B990B0E94321D20E030E04AEF54E4B6
:101190000E94BE1D20E030E040E058E30E94BE1DEA
:1011A000F70160837183828393836D817E81072E33
:1011B000000C880B990B0E94321D20E030E04AEFB2
:1011C00054E40E94BE1D20E030E040E058E30E945D
:1011D000BE1DF801608371838283938381E090E078
:1011E000A6CF6EE10E94FC07817099270895CF92E7
:1011F000DF92EF92FF920F931F93CF93DF93CDB7C0
:10120000DEB72697CDBFDEBF6B017A01890126E0EC
:1012100030E0AE014F5F5F4F68E20E945C070097CD
:10122000F9F440E050E060EC7FE7F6014083518341
:1012300062837383F7014083518362837383F80170
:1012400040835183628373832696CDBFDEBFDF91D7
:10125000CF911F910F91FF90EF90DF90CF90089565
:1012600069817A81072E000C880B990B0E94321D30
:1012700020E030E040E850E40E94BE1D20E030E075
:1012800040E058E30E94BE1DF601608371838283B3
:1012900093836B817C81072E000C880B990B0E9435
:1012A000321D20E030E040E850E40E94BE1D20E006
:1012B00030E040E058E30E94BE1DF7016083718377
:1012C000828393836D817E81072E000C880B990B9E
:1012D0000E94321D20E030E040E850E40E94BE1D34
:1012E00020E030E040E058E30E94BE1DF80160833A
:1012F00071838283938381E090E0A6CF08950F935A
:1013000091E090933429109233296093312970939E
:1013100032294093302920932F2910922E291092A0
:101320002D2900932C29880F80932B2923E030E06E
:1013300044E050E080913029882341F0209329290E
:1013400030932A2980912B298E7F0BC080912F29E1
:10135000882351F04093292950932A2980912B29E1
:1013600081608093A70808C080913029811104C052
:1013700080912F29882311F3809133298823E1F369
:10138000809133298330B1F280912F29882321F075
:1013900080912D290F91089580913329823031F069
:1013A000853031F0813031F480E0F4CF81E0F2CF4C
:1013B00083E0F0CF84E0EECFE0EAF8E0918590663C
:1013C000918722E030E02093292930932A298093C5
:1013D0001B2910921A29089581E080931A291092EE
:1013E0001B2993E09093AA089091AB0891FF10C03D
:1013F00010922729E0911829F091192909958093D5
:10140000262985E090E08093292990932A29089540
:10141000109228298093252986E090E0F4CF8F92BE
:101420009F92AF92BF92CF92DF92EF92FF92CF93B3
:10143000DF9360342DE0720723E08207910508F402
:1014400054C0611525E372072CE08207910508F46A
:1014500045C060387F448241910508F046C0C8E726
:10146000D0E020E432E44FE050E0809001289090FA
:101470000228A0900328B0900428C501B4010E945E
:10148000FB1B69017A018AE0C81AD108E108F1085A
:10149000C501B40120E432E44FE050E00E94FB1BA0
:1014A000DE010E943C1C28EE33E040E050E00E9448
:1014B000FB1BC21AD30AE40AF50AF694E794D79400
:1014C000C794C092A608DF91CF91FF90EF90DF9074
:1014D000CF90BF90AF909F908F900895CCE2D1E0D5
:1014E00020E83AE146E050E0C0CFC8EED3E020EA81
:1014F00036E841E050E0B9CF609316297093172980
:10150000089560931429709315290895E091162980
:10151000F0911729309741F0109213291092122957
:10152000099580911229089580E00895E091142989
:10153000F0911529309759F03091112920911029F7
:10154000321728F0109211298093102909940895D8
:101550000895E091112980911029E81730F4F0E006
:10156000E057F74D808190E008958FEF9FEF089549
:1015700090911129809110292FEF3FEF981748F48F
:10158000E92FF0E0E057F74D208130E09F5F909326
:101590001129C90108958091102990911129891B61
:1015A000990B0895CF92DF92EF92FF920F931F93C2
:1015B000CF93DF937C018A01EB016B01C40ED51E32
:1015C000CC15DD0551F06991D701ED91FC910190A9
:1015D000F081E02DC7010995F3CFC801DF91CF91CC
:1015E0001F910F91FF90EF90DF90CF900895209181
:1015F000122927FF08C021E030E0FC012283338359
:1016000090E080E0089580911329E82FF0E0E05FFA
:10161000F74D60838F5F809313298093122981E0B7
:1016200090E00895DC01ED91FC91008CF18DE02DAE
:1016300061E009940F938091292990912A290197BB
:10164000A1F480913429811112C0062F20E040912D
:10165000122960E178E280910F280E947F091092A0
:101660001329109212290F91089580E0F8CF81E09C
:10167000F6CF60930F281092132910921229089523
:10168000DC01ED91FC91048CF58DE02D21E00994B5
:101690000F9380E998E280931C2990931D298091F3
:1016A000292990912A290197C9F48091342981111F
:1016B00017C0FA014138510510F0E0E8F0E0022FC0
:1016C000862F2E2F40E070E060E00E947F0910928C
:1016D00011298093102990E00F91089580E0F7CFB1
:1016E00081E0F5CFCB01BA010C940F0AE0EAF8E0F3
:1016F0001382168281E0858314861186109229292F
:1017000010922A29089510921129109210291092EE
:101710001329109212298091292990912A29892B25
:10172000D9F482E090E08093292990932A2910929D
:1017300028291092272910921A2910921B291092F9
:101740000E2810922529660F6093AC0881EE8093D5
:10175000A90881E08093A30886E89AE0809318297D
:101760009093192980E198E280931E2990931F2974
:1017700086E99AE0809323299093242980E998E2CE
:10178000809320299093212980E88093222908952D
:1017900010921129109210291092132910921229D7
:1017A0008091292990912A29892BF1F48091E305D0
:1017B0008093E30581E090E08093292990932A2982
:1017C00010922D2910922E2910923429109233292B
:1017D00081EC8093A30860EA76E881E090E00E94C3
:1017E0000F0A81E08093A508089590E080E00895B5
:1017F00082E00E94600521E0892B09F420E020931B
:101800000D2883E00E94600581E08093002C0895FC
:10181000DC01ED91FC910088F189E02D23E030E0BE
:101820000994DF92EF92FF920F931F93CF93DF9370
:10183000DC011496ED91FC91E417F50710F490E0AB
:1018400029C0D22E8A017B01EC0189819A81DC01B9
:10185000ED91FC910688F789E02D688109958981D1
:101860009A81DC01ED91FC910280F381E02DA801C9
:10187000B70109950817190711F789819A81DC01C9
:10188000ED91FC91008CF18DE02D6D2D099591E08D
:101890008111D5CF892FDF91CF911F910F91FF90AB
:1018A000EF90DF900895CF93DF9300D0CDB7DEB7F0
:1018B000806889836A8321E042E050E0BE016F5F67
:1018C0007F4F8091302E9091312E0E94110C0F90FD
:1018D0000F90DF91CF9108955F926F927F928F92D8
:1018E0009F92AF92BF92CF92DF92EF92FF920F93AF
:1018F0001F93CF93DF937C013A01690120E041E01F
:1019000050E00E94110C582E882309F454C010E0B6
:1019100000E0D70114968D919C91E601C01BD10B7C
:101920008C179D0708F4EC01F7018181928121E079
:10193000A6014C1B5D0B0417150708F420E0DC0121
:10194000ED91FC91048CF58DE02DAE01D7016C91E9
:101950000995C817D90779F54301800E911E5401E6
:10196000C501881999098C179D0770F4F7018181C9
:101970009281DC01ED91FC910284F385E02D0995C3
:10198000F50181935F01ECCF0C0F1D1F0C151D0598
:1019900008F4BFCF852DDF91CF911F910F91FF905C
:1019A000EF90DF90CF90BF90AF909F908F907F90FF
:1019B0006F905F900895512CEDCFCF93DF9300D0BF
:1019C000CDB7DEB719821A828068898322E030E0C1
:1019D000AE014F5F5F4FBA018091302E9091312E52
:1019E0000E946C0C89819A810F900F90DF91CF91AA
:1019F0000895CF93DF9300D0CDB7DEB789836A8394
:101A000021E042E050E0BE016F5F7F4F80917A2E6F
:101A100090917B2E0E94110C0F900F90DF91CF912F
:101A20000895CF93DF93CDB7DEB72597CDBFDEBF47
:101A3000660F660F6A5F69831A825B832C833D831E
:101A400021E045E050E0BE016F5F7F4FFC018181E6
:101A500092810E94110C2596CDBFDEBFDF91CF9100
:101A60000895FC01668380E1689F900111248381C1
:101A7000948150E040E06081CF960C94110DCF939B
:101A8000DF93EC018B819C8130E020E050E040E06E
:101A90006A81CF960E94110D8B819C8130E020E0FD
:101AA00040E050E16981CF96DF91CF910C94110D08
:101AB000FC0101900020E9F73197AF01481B590B59
:101AC000BC0181E09DE20C94F4060F931F93CF9329
:101AD000DF938C01D0E0C0E0F801EC0FFD1F6491B2
:101AE000662341F081E09DE20E944A04892B11F0B7
:101AF0002196F2CF82EC9FE70E94580D8C0F9D1F1C
:101B0000DF91CF911F910F9108958F929F92AF9285
:101B1000BF920F931F93CF93DF93CDB7DEB7A197FB
:101B2000CDBFDEBF19A2423008F44AE08E010F5D3E
:101B30001F4F842E912CB12CA12CA50194010E9441
:101B4000FB1BE62FB901CA01EA30DCF4E05DD801E5
:101B5000EE938D01232B242B252B79F790E080E049
:101B6000109719F0CD010E94580DA196CDBFDEBF90
:101B7000DF91CF911F910F91BF90AF909F908F9069
:101B80000895E95CE4CF0C94C71E0C94C71EFF9225
:101B90000F931F93CF93DF931F92CDB7DEB7809142
:101BA000302E9091312E009711F00E94C71E86E0D2
:101BB00090E00E942B1E29E2FC01208321EF3DE2F0
:101BC00021833283138220E230E0248335838093A3
:101BD000302E9093312E0E94DD01182F811109C003
:101BE00010E0812F0F90DF91CF911F910F91FF9007
:101BF000089582E9898321E030E0AE014F5F5F4FB5
:101C0000BA018091302E9091312E0E946C0C898106
:101C10008D3421F0843411F0803111F781E080930C
:101C2000322E0091352E602F0E94530C0093352EDA
:101C30000091332EF090342E8091322E811102C00B
:101C40000E94C70D602F8FE00E94530C0093332E2B
:101C5000F092342E61E080E00E94530C63E070E06B
:101C600080E090E00E94C40663E080E00E94530C94
:101C70008091352E20E031E0281B31094CE0429F55
:101C8000C001439F900D112465E070E00E94E71BA6
:101C90006F5F7F4F072E000C880B990B0E94C406C4
:101CA000A0CFCF92DF92EF92FF920F93FC01C12C55
:101CB000B9E0DB2EBDE3EB2EF12CC082D182E282B3
:101CC000F3821482158281E090E086839783C0902E
:101CD0000128D0900228E0900328F0900428F69480
:101CE000E794D794C79490E04C155D056E057F0589
:101CF00040F4F694E794D794C7949F5F9630A1F789
:101D000097E004600187892F8095A82FA170B0E02B
:101D100084E0AA0FBB1F8A95E1F791629A2B80E0BD
:101D2000232B09F480E4982B90870F91FF90EF907C
:101D3000DF90CF9008950F931F93CF93DF93CDB78C
:101D4000DEB72A97CDBFDEBF8C01FC0187818111F0
:101D50000CC0108611861286138614861586168688
:101D60001786108A118A81E087838091E305F80144
:101D70009681892B8093E30561E070E083810E9466
:101D8000180661E070E0F80184810E9418068091D5
:101D9000C10884608093C1088091C00881628093EB
:101DA000C0084091F92C5091FA2C6091FB2C709155
:101DB000FC2C0091FD2C2091FF2C3091002DCE01A8
:101DC00001960E94510E99858A859093C008809350
:101DD000C1082A96CDBFDEBFDF91CF911F910F9131
:101DE00008955F926F927F928F929F92AF92BF926F
:101DF000CF92DF92EF92FF920F931F93CF93DF93D7
:101E0000CDB7DEB76297CDBFDEBF3C010B871C8725
:101E10002D873E87042F4F87588B698B7A8B2989B2
:101E20003A894B855C856D857E85CE0101960E9441
:101E3000510E59841A85D30118968C91882319F074
:101E400081FF18C0F8945092C0081093C1086296A0
:101E5000CDBFDEBFDF91CF911F910F91FF90EF902B
:101E6000DF90CF90BF90AF909F908F907F906F90BA
:101E70005F90089580FFE7CFF30182849384A48468
:101E8000B584C12CD12C7601B0E09401A501B60136
:101E9000C701A0E00E946C1CA9F1217030E040E075
:101EA00050E060E070E080E090E00E946C1CE9F09F
:101EB00090E080E0B03370F48B2F86958695869500
:101EC000F0E28F9FC0011124805F9B4F2B2F277062
:101ED000820F911DFC01408193012B0F311DF901EF
:101EE000428BFC012081287F20839401A501B6014B
:101EF000C70101E00E94511C49015A016B017C019C
:101F0000BF5FC3CFD3011E968D909D90AD90BC90C6
:101F10005197C12CD12C7601B0E29401A501B601F4
:101F2000C701A0E00E946C1C09F48DCF217030E045
:101F300040E050E060E070E080E090E00E946C1CC7
:101F4000E9F090E080E0B03370F48B2F86958695B1
:101F50008695E0E28E9FC0011124805F9B4F2B2F5E
:101F60002770820F911DFC01408193012B0F311DC1
:101F7000F901428BFC012081287F20839401A50177
:101F8000B601C70101E00E94511C49015A016B01D1
:101F90007C01BF5FC2CF1F920F920FB60F92112428
:101FA0002F933F934F935F936F937F938F939F9361
:101FB000AF93BF934091092C50910A2C60910B2C48
:101FC00070910C2C8091072C9091082C2091052C5D
:101FD0003091062C420F531F611D711D2091032C5F
:101FE0003091042C820F931F883E23E0920730F03B
:101FF000885E93404F5F5F4F6F4F7F4F8093072CFA
:102000009093082C4093092C50930A2C60930B2C2E
:1020100070930C2C8091112C9091122CA091132C68
:10202000B091142C0196A11DB11D8093112C909399
:10203000122CA093132CB093142C81E08093B60A39
:10204000BF91AF919F918F917F916F915F914F91D0
:102050003F912F910F900FBE0F901F9018951F92D8
:102060000F920FB60F9211242F933F934F935F93CC
:102070006F937F938F939F93AF93BF93EF93FF9350
:1020800085E00E942107FF91EF91BF91AF919F9151
:102090008F917F916F915F914F913F912F910F9011
:1020A0000FBE0F901F9018951F920F920FB60F92B0
:1020B00011242F933F934F935F936F937F938F934D
:1020C0009F93AF93BF93EF93FF9384E00E94210708
:1020D000FF91EF91BF91AF919F918F917F916F9100
:1020E0005F914F913F912F910F900FBE0F901F90D6
:1020F00018951F920F920FB60F9211242F933F93B2
:102100004F935F936F937F938F939F93AF93BF93FF
:10211000EF93FF9383E00E942107FF91EF91BF911E
:10212000AF919F918F917F916F915F914F913F916F
:102130002F910F900FBE0F901F9018951F920F9226
:102140000FB60F9211242F933F934F935F936F938A
:102150007F938F939F93AF93BF93EF93FF9382E00F
:102160000E942107FF91EF91BF91AF919F918F91B5
:102170007F916F915F914F913F912F910F900FBE83
:102180000F901F9018951F920F920FB60F92112467
:102190002F933F934F935F936F937F938F939F936F
:1021A000AF93BF93EF93FF9381E00E942107FF91CC
:1021B000EF91BF91AF919F918F917F916F915F91BF
:1021C0004F913F912F910F900FBE0F901F90189538
:1021D0001F920F920FB60F9211242F933F934F939C
:1021E0005F936F937F938F939F93AF93BF93EF937F
:1021F000FF9380E00E942107FF91EF91BF91AF9183
:102200009F918F917F916F915F914F913F912F910E
:102210000F900FBE0F901F9018951F920F920FB640
:102220000F9211242F933F934F935F936F937F935C
:102230008F939F93AF93BF93EF93FF9381E09DE2C2
:102240000E940504FF91EF91BF91AF919F918F91F3
:102250007F916F915F914F913F912F910F900FBEA2
:102260000F901F9018951F920F920FB60F92112486
:102270002F933F934F935F936F937F938F939F938E
:10228000AF93BF93EF93FF93E0910D2DF0910E2D3F
:10229000818181FD2FC060818091132D8F5F8F73AD
:1022A0009091142D891741F0E091132DF0E0EF5F2C
:1022B000F24D618F8093132D80919A2D90919B2DDB
:1022C000009739F0DC01ED91FC910190F081E02D57
:1022D0000995FF91EF91BF91AF919F918F917F9160
:1022E0006F915F914F913F912F910F900FBE0F9083
:1022F0001F9018958081EDCF1F920F920FB60F920D
:1023000011240F931F932F933F934F935F936F93DA
:102310007F938F939F93AF93BF93CF93DF93EF936D
:10232000FF9380913529C091212ED0E087FF52C0C4
:102330001092AC0A1092AD0A809135298F5F80937C
:10234000352980913529082E000C990B8C179D0793
:102350002CF4809135298C300CF467C0C091AC0A04
:10236000D091AD0A609101287091022880910328D4
:102370009091042820E432E44FE050E00E94FB1BDF
:1023800054E0369527955A95E1F740E85EE3249F9F
:10239000C001259F900D349F900D1124969587952F
:1023A00096958795AE0170E060E04C5F5F4F6F4F90
:1023B0007F4F8C0130E020E0401751076207730720
:1023C00008F07EC08093AC0A9093AD0A8FEF8093A3
:1023D00035295EC080913529082E000C990B8C1789
:1023E0009D070CF0A9CFE09135298E2FEE0F990BA8
:1023F000FC01EE0FFF1FE80FF91FE350F24D808143
:1024000086FF9ACFE09135298E2FEE0F990BFC01B4
:10241000EE0FFF1FE80FF91FE350F24D808170E0CF
:1024200060E08F730E94830587CFE09135298E2F5E
:10243000EE0F990BFC01EE0FFF1FE80FF91FE350A1
:10244000F24D808186FF12C0E09135298E2FEE0F6C
:10245000990BFC01EE0FFF1FE80FF91FE350F24D3F
:10246000808161E070E08F730E948305E0913529DF
:102470008E2FEE0F990BFC01EE0FFF1FE80FF91FD7
:10248000E350F24D818192818093AC0A9093AD0A22
:1024900081E08093A60AFF91EF91DF91CF91BF91E8
:1024A000AF919F918F917F916F915F914F913F91EC
:1024B0002F911F910F910F900FBE0F901F901895A5
:1024C0002496C093AC0AD093AD0A80CF1F920F928E
:1024D0000FB60F9211242F933F934F935F936F93F7
:1024E0007F938F939F93AF93BF93CF93EF93FF937C
:1024F000C091AB08C2FF0AC0109228291092272968
:102500001092262984E00E94DC0914C0C6FF2FC067
:1025100080912529813051F480912829E091232947
:10252000F091242990E0099510922529C0FF14C04C
:102530000E94EC09FF91EF91CF91BF91AF919F91D4
:102540008F917F916F915F914F913F912F910F905C
:102550000FBE0F901F90189580E48093AB0881E028
:102560000E94DC098091AB0885FFE4CFE1CFC7FF73
:102570005CC0C3FF08C0109228291092272910922E
:10258000262983E0C0CF8091A90880668093A9089E
:102590008091AB0881FF2CC080912729882349F0C6
:1025A0008091AB0884FF05C082E08093AA0881E097
:1025B000AACF90912729809126299817A8F4E09115
:1025C000272980911E2990911F29E80FF92FF11DCD
:1025D00080818093AD08809127298F5F8093272980
:1025E00083E08093AA08A6CF82E08093AA088BCFCD
:1025F0009091282980912229981790F48091AD0814
:10260000E09128292091202930912129E20FF32FF0
:10261000F11D8083809128298F5F80932829E0CF46
:1026200086E08093AA0882E06ECF85E06CCF1F928F
:102630000F920FB60F9211242F933F938F939F9376
:10264000EF93FF938091A508982F9C70E1F0809103
:10265000A50894E082FF93E0909333298093A50826
:1026600081E090E08093292990932A2910923429BF
:10267000FF91EF919F918F913F912F910F900FBEFE
:102680000F901F90189586FF4EC020913029909191
:102690002F298091A50884FF15C080912C298823BB
:1026A00079F083E08093A40885E080933329109229
:1026B000342981E090E08093292990932A29D8CF6A
:1026C00081E0F0CF80912E29821790F4E0912E299D
:1026D0008091312990913229E80FF92FF11D8081E5
:1026E0008093A80880912E298F5F80932E29C0CFD8
:1026F00080912D29891760F484E090E08093292946
:1027000090932A2980912B2981608093A708B0CFCC
:1027100080912C29882329F083E08093A40881E00C
:10272000C4CF81E0FACF87FF40C090912D298091DE
:102730002F299817D8F48091A808E0912D2920918D
:102740001C2930911D29E20FF32FF11D8083809108
:102750002D298F5F80932D2990912F2980912D29EC
:102760008917D8F482E08093A40882CF80912C2925
:10277000882389F087E08093A40882E0809333293E
:102780001092342981E090E08093292990932A299E
:1027900010922F296DCF85E0EECF80912C298823D0
:1027A00011F087E0BACF85E0B8CF86E07ECF1F92E8
:1027B0000F920FB60F9211242F933F934F935F9375
:1027C0006F937F938F939F93AF93BF93EF93FF93F9
:1027D00080910C288F5F80930C288530F0F0E09179
:1027E000382EF091392E8681E091362EF091372ED9
:1027F0009681890F9927991F892B19F470E060E061
:1028000007C086E00E94600561E070E0892BB1F7A7
:1028100086E00E941D0510920C2881E08093960AA4
:10282000FF91EF91BF91AF919F918F917F916F91A8
:102830005F914F913F912F910F900FBE0F901F907E
:1028400018951F920F920FB60F921124CF92DF921C
:10285000EF92FF922F933F934F935F936F937F93EA
:102860008F939F93AF93BF93EF93FF93CF93DF9398
:10287000CDB7DEB72C97CDBFDEBF8091FA2B882372
:10288000F1F18EED9DE20E946308892B89F09E0193
:102890002F5F3F4FAE014B5F5F4FBE01675F7F4FC2
:1028A0008EED9DE20E946A08C980DA80EB80FC8090
:1028B00020E030E0A901C701B6010E948E1C20E093
:1028C00030E040E05FE30E94BE1D26EA3BE944E4BD
:1028D0005BE30E94BE1D9B01AC016091FB2B7091DC
:1028E000FC2B8091FD2B9091FE2B0E948E1C6093FF
:1028F000FB2B7093FC2B8093FD2B9093FE2B81E0A0
:102900008093860A2C96CDBFDEBFDF91CF91FF91D9
:10291000EF91BF91AF919F918F917F916F915F9157
:102920004F913F912F91FF90EF90DF90CF900F90BC
:102930000FBE0F901F90189590E0FC01E15EF048EB
:10294000E081EF3F49F18A509148DC012C91822FC0
:10295000880F880F880F8E0F8033F0F490E0880F77
:10296000991FDC01A756B34D48EF5BE04D935C9394
:10297000875C934DDC011D921C92B0E22B9FC0013D
:1029800011249C5F4096E80FF92FF11D8081887F0C
:1029900080838081826080830895CF93DF9380E07D
:1029A00099E0ADE3B0E08093F92C9093FA2CA093DA
:1029B000FB2CB093FC2C1092FD2C1092FE2C21E0ED
:1029C00030E02093FF2C3093002D8CE49FE7809320
:1029D0009C2D90939D2D1092A32D81E08093A22D8C
:1029E00081E280939E2D82E28093A02D80E28093ED
:1029F0009F2D86E18093A12D1092032D1092042D1E
:102A000088EE93E0A0E0B0E08093052D9093062D32
:102A1000A093072DB093082D4AE65FE74093012D60
:102A20005093022D40E658E040930D2D50930E2D0B
:102A30004AE140930F2D4BE14093102D40E4409329
:102A4000112D1092132D1092142D1092152D1092FD
:102A5000162D46E24093172D1092182D1092192D25
:102A600010929A2D10929B2D44E85FE74093DE2D43
:102A70005093DF2D1092E02D1092E12D4CE95DE294
:102A80004093E22D5093E32D4EE150E04093E52D2D
:102A90005093E62D4FE150E04093E72D5093E82D01
:102AA00040E856E968E970E04093E92D5093EA2D3B
:102AB0006093EB2D7093EC2D1092ED2D1092EE2D76
:102AC0002093EF2D3093F02D1092F32D1092F42DD2
:102AD0008093F52D9093F62DA093F72DB093F82DBC
:102AE0008EE99FE78093F12D9093F22DEDE3FEE2C6
:102AF00089E59EE21382148215821282118210826D
:102B0000168237968E179F07A9F71092652E10929E
:102B1000682E1092632E1092642E1092752E1092D1
:102B2000782E1092732E1092742E10927A2E10928C
:102B30007B2E80E48093792E80E680933A2E8091DC
:102B4000422E882309F471C08DE39EE28093382ED3
:102B50009093392E8091492E811112C081E080938B
:102B6000492E8AE39EE28093472E9093482E8DE073
:102B70008093442E8BE08093452E8CE08093462EEC
:102B800084E49EE28093362E9093372E1092302E5E
:102B90001092312E1092322E8FEF8093352E21E03D
:102BA00030E02093332E3093342E9AE0E5E2FEE2BB
:102BB000DF011D929A95E9F7C091212ECC3008F0E3
:102BC00044C081E08C0F8093212EC093222ED0E050
:102BD0006091012870910228809103289091042827
:102BE00020E432E44FE050E00E94FB1B84E0369585
:102BF00027958A95E1F74CED55E0249FC001259F6C
:102C0000900D349F900D11249C0136952795369593
:102C10002795CE01880F991FC80FD91FC350D24DD9
:102C200029833A83DF91CF9108958AE39EE28093CE
:102C3000402E9093412E88E080933D2E8AE0809331
:102C40003E2E89E080933F2E7FCF8093222EEACFC5
:102C5000CF93DF93CDB7DEB7E897CDBFDEBF88ED6A
:102C600090E084BF9093610080E094E2A4EFB0E034
:102C70008093012890930228A0930328B0930428FE
:102C80008091020686608093020680910006816032
:102C900080930006809102068F7C809302068091CB
:102CA000A0008F788093A0008091020680618093BD
:102CB00002061092E20581E08093E40583E08093B0
:102CC000010A8FEF90E08093260A9093270A80E80C
:102CD00090E08093380A9093390A80933A0A90934F
:102CE0003B0A80933C0A90933D0A8BE08093000A54
:102CF0008091E50581608093E5058091E50582601E
:102D00008093E505E0E8FAE037E02FEF90E885E012
:102D100031832487958780837096E03C4AE0F407EE
:102D2000B9F780E094E080930F2C9093102C809161
:102D30000F2C9091102C2FEF30E0B9010E94D31B83
:102D400060930D2C70930E2C80910F2C9091102C71
:102D5000E8EEF3E0BF010E94D31B6093052C709353
:102D6000062C80910F2C9091102CBF010E94D31B38
:102D70008093032C9093042C2093BC0A3093BD0ABB
:102D80008091B50A81608093B50A84E08093B00A8F
:102D90008091B00A81608093B00A789461E070E01D
:102DA0008CE10E94BD0461E070E08CE10E941D0591
:102DB00061E070E08DE10E94BD0461E070E08DE1B2
:102DC0000E941D0561E070E083E20E94BD0461E0A5
:102DD00070E083E20E941D0561E070E08EE10E94D8
:102DE000BD0461E070E08EE10E941D0540E855E2FF
:102DF00060E070E081E09DE20E94080CF0903A2EC5
:102E0000F092792E86E090E00E942B1EDC01FC926D
:102E100021EF3DE211962D933C93129713961C924D
:102E2000139720E230E014962D933C9315978093EE
:102E30007A2E90937B2E0E94DD01882309F4AEC484
:102E400060E080E00E94F90C80E496E080933B2EE5
:102E500090933C2E198221E030E0AE014F5F5F4F2E
:102E6000BA0180917A2E90917B2E0E946C0CF98091
:102E70006F2D6F76606180E00E94F90C63E08EEF49
:102E80000E94F90C6F2D80E00E94F90C65E070E063
:102E900080E090E00E94C4066F2D616A80E00E948D
:102EA000F90CF12C30E020E050E040E06F2D89E794
:102EB0009EE20E94110DF394B0E1FB12F3CF8091DA
:102EC000E22D9091E32D892B59F48091E02D909182
:102ED000E12DDC01ED91FC910684F785E02D16C013
:102EE00061E070E08091E52D0E94180661E070E0DD
:102EF0008091E52D0E9483058091E22D9091E32D34
:102F0000DC01ED91FC910688F789E02D09956FE0D1
:102F10008EED9DE20E94FC078C369105D1F16FE0A9
:102F20008EED9DE20E94FC078936910591F180911A
:102F3000E22D9091E32D0097C1F0DC01ED91FC9121
:102F4000008CF18DE02D099570E060E08091E52D19
:102F50000E94830570E060E08091E52D0E941806D4
:102F60008CEC92E00E94650DFFCF60E081E10E9451
:102F7000880560E080E10E9488058091E02D9091B5
:102F8000E12DDC01ED91FC910288F389E02D09959A
:102F9000E7CF6CE481E10E9488056AE480E10E9449
:102FA000880560E086E10E94880569E087E10E946B
:102FB000880585EC9FE70E94580D82EC9FE70E94F0
:102FC000580D0E94C70D882309F496C3F89482E136
:102FD0009AE780938C0A90938D0A95E49093800AE7
:102FE00081E08093850A29EA33E020939C0A30939C
:102FF0009D0A9093900A8093950A789470E060E01F
:103000000E94BD0470E060E082E00E94BD0470E0B8
:1030100060E083E00E94BD0470E060E087E00E9411
:10302000BD0461E070E084E00E94BD0461E070E0F6
:1030300085E00E94BD0461E070E086E00E94BD046E
:1030400082E00E949C1483E00E949C141092012C48
:103050001092022CECE6F9E226E0CF01849621835F
:10306000108232968E179F07D1F7845F9B42A9F793
:103070008EE2809372298093D82997E490939429C3
:103080009093B62980939A298093222A95E590936C
:10309000A02990938E2A21E22093BA292093DC293B
:1030A00022E22093C22920936C2A28E62093E0296B
:1030B0002093022A8093082A80934C2A9093122A04
:1030C0009093002B86E680939E2A8093C02A83EB00
:1030D0008093AA2A8093982B83E28093C42A8093BA
:1030E000E62A85E28093CA2A8093522B88E4809353
:1030F000EA2A80930C2B8EE18093EC2A8093302B6C
:103100008BE88093182B8093C22B8DE280935C2BED
:1031100080937E2B87E280935E2B8093A22B8AE2A2
:103120008093A82B8093CA2B86E28093CE2B80932A
:10313000F02B21E02093732985E08093D929109208
:10314000952992E09093B72983E080939B2934E0FE
:103150003093232A2093A12980938F2A1092BB2990
:103160009093DD292093C32930936D2A1092E12991
:103170009093032A8093092A30934D2A2093132A8F
:103180008093012B10929F2A9093C12A2093AB2AFF
:103190008093992B1092C52A9093E72A2093CB2AEB
:1031A0008093532B1092EB2A90930D2B8093ED2A52
:1031B0003093312B2093192B8093C32B90935D2B4D
:1031C00030937F2B20935F2B8093A32B1092A92BFE
:1031D0009093CB2B8093CF2B3093F12B9E012B5DC3
:1031E0003F4FD901E6E3F9E284EF91E081939193B7
:1031F0001D9249E2EA35F407C9F710923629109278
:103200003729B5E1EB2EBCE2FB2EF7018FEF9FEFE4
:10321000819391935CE2E933F507D1F7FE01319692
:103220008FEF9FEF819391932E173F07D9F761E1BD
:1032300070E066246394A4E27A2EE6E3F9E2D90111
:1032400044EF51E090E080E0DD90D11007C0C080F5
:10325000D1804C155D0514F08C01A60101963296C3
:103260008231910589F7F901E00FF11F6082709EAC
:103270004001719E900C1124C801880F991FDC0138
:10328000AA5CB64D5D01290190E080E0F201419118
:103290002F01411126C0DC01A80DB91DA459B64D5E
:1032A000EC91EE23F1F0D5014D915C91443FB1E0FA
:1032B0005B07B9F04E0F511DDC01AA5CB64DCD90F5
:1032C000DC9011974C155D0564F4CC24C394D12C8B
:1032D000CC0EDD1EC80ED91EF601008311834D935E
:1032E0005C9302968432910589F66150710909F068
:1032F000A4CF1FAA18AEAE01495C5F4F67E070E033
:10330000CE0101960E94B401AAE5B9E224E2F701D8
:10331000819191917F01289FF001299FF00D112447
:10332000AF014459564DF70180819181880F991F53
:10333000FA01E80FF91F81818D93F7E3EF16FCE2A4
:10334000FF0629F78091382E9091392E0E943F0D6B
:103350008091362E9091372E0E943F0D61E070E0F3
:1033600086E00E941D0530E0232E30E0332E22E05F
:10337000E22EF12C10E000E08091322E811102C08B
:103380000E94C70D84E10E94DD0C6C0186E10E9461
:10339000DD0C88E10E94DD0C8AE10E94DD0C809149
:1033A000352E20E031E0281B31094CE0429FC0015E
:1033B000439F900D112465E070E00E94E71B6F5F52
:1033C0007F4F072E000C880B990B0E94C4060C0D32
:1033D0001D1DEA94EF2809F094C117FF02C00F5F8A
:1033E0001F4F15950795B80190E080E04AE00E94D4
:1033F000850D82EC9FE70E94580D8EE591E0801BC1
:10340000910B8C01BC01990F880B990B0E94321D06
:103410006B017C012091F62B3091F72B4091F82B1A
:103420005091F92B0E948E1C4B015C018092F62B6F
:103430009092F72BA092F82BB092F92B8091F42B5D
:103440009091F52BB801681B790B072E000C880BA7
:10345000990B0E94321D2AE939E949E15FE30E9494
:10346000BE1D2B013C012AE939E949E95EE3C501AA
:10347000B4010E94BE1DA70196010E948E1C9B01F3
:10348000AC01C301B2010E948E1C0E94FA1C609321
:10349000012C7093022C0093F42B1093F52B6B01ED
:1034A000770FEE08FF084AE0C701B601F7FE0DC02E
:1034B0006DE281E09DE20E944A0466277727CB01F6
:1034C0006C197D098E099F094AE00E94850D82ECE6
:1034D0009FE70E94580D0091012C1091022C8091C1
:1034E000382E9091392E66E970E0601B710B77FDE4
:1034F0000CC16F3F710519F014F06FEF70E00E947E
:10350000310D8091362E9091372EB8016A567F4F3B
:1035100077FDFDC06F3F710519F014F06FEF70E09B
:103520000E94310DD090002CDD2009F4DEC060E057
:103530008091382E9091392E0E94310D60E080915B
:10354000362E9091372E0E94310D8091FF2B8111E4
:1035500002C18CEC9FE70E94580D82EC9FE70E940D
:10356000580D1092FB2B1092FC2B1092FD2B1092F9
:10357000FE2B6091002870E06E5F7F4F63707727AD
:1035800062507109072E000C880B990B0E94321DA6
:103590002BED3FE049EC5FE30E94BE1D0E94FA1C48
:1035A0008B0166E98091382E9091392E0E94310D61
:1035B00066E98091362E9091372E0E94310D8091D0
:1035C000382E9091392E0E943F0D8091362E909189
:1035D000372E0E943F0D60ED77E080E090E00E9482
:1035E000C40660E08091382E9091392E0E94310DF2
:1035F00060E08091382E9091392E0E94310DE0903C
:10360000382EF090392E101611060CF082C0C7012A
:103610000E943F0DE090362EF090372ED701139682
:103620008D919C91149730E020E050E040E011969D
:103630006C91CF960E94110DF7018381948130E047
:1036400020E040E050E16281CF960E94110D66E9D2
:103650008091382E9091392E0E94310D66E980912B
:10366000362E9091372E0E94310D6091FB2B709178
:10367000FC2B8091FD2B9091FE2B0E94FA1CFB01EC
:1036800077FF04C0EE27FF27E61BF70B44275527DB
:10369000401B510B980117FD9A01E217F3070CF438
:1036A00058C0D092FA2B60E08091382E9091392E3C
:1036B0000E94310D60E08091362E9091372E0E944D
:1036C000310D8091382E9091392E0E943F0D8091BE
:1036D000362E9091372E0E943F0D10920028809137
:1036E000002CF1E08F278093002C2114310409F481
:1036F0003ECE0E9400003BCE80EA92E00E94650D23
:10370000FFCFEE24E394F12C37CE60E0F8CE60E0FA
:1037100007CFD70113968D919C91149730E020E04C
:1037200050E040E011966C91CF960E94110DF70188
:103730008381948130E020E040E050E16281CF96C7
:103740000E94110D8091362E9091372E0E943F0DD0
:103750007ECFD12C9FCF6EE18091382E9091392E63
:103760000E94310D6EE18091362E9091372E0E948D
:10377000310D60E777E180E090E00E94C40660E0F0
:103780008091382E9091392E0E94310D60E0809109
:10379000362E9091372E0E94310DFFCF86EE92E0AB
:1037A0000E94650DFFCFAA1BBB1B51E107C0AA1FDA
:1037B000BB1FA617B70710F0A61BB70B881F991FD2
:1037C0005A95A9F780959095BC01CD01089597FB76
:1037D000072E16F4009407D077FD09D00E94D31B62
:1037E00007FC05D03EF4909581959F4F0895709504
:1037F00061957F4F0895A1E21A2EAA1BBB1BFD0104
:103800000DC0AA1FBB1FEE1FFF1FA217B307E407BF
:10381000F50720F0A21BB30BE40BF50B661F771F17
:10382000881F991F1A9469F76095709580959095F7
:103830009B01AC01BD01CF010895052E97FB1EF43D
:1038400000940E94341C57FD07D00E94FB1B07FC0C
:1038500003D04EF40C94341C50954095309521952E
:103860003F4F4F4F5F4F08959095809570956195AC
:103870007F4F8F4F9F4F08950E947E1CA59F900DF4
:10388000B49F900DA49F800D911D11240895B7FF42
:103890000C943C1C0E943C1C821B930B089597FDCA
:1038A0001094002E083098F00850232F342F452F05
:1038B000562F672F782F892F912DF4CF1594979538
:1038C00087957795679557954795379527950A95E5
:1038D000AAF71124002D08950024A7FD00942A17AB
:1038E0003005400550056005700580059005089578
:1038F000EE0FFF1F0590F491E02D0994A29FB001F7
:10390000B39FC001A39F700D811D1124911DB29F13
:10391000700D811D1124911D08955058BB27AA27B1
:103920000E94A51C0C94841D0E94761D38F00E94F4
:103930007D1D20F039F49F3F19F426F40C94731D7B
:103940000EF4E095E7FB0C946D1DE92F0E94951D88
:1039500058F3BA17620773078407950720F079F4C4
:10396000A6F50C94B71D0EF4E0950B2EBA2FA02DE2
:103970000B01B90190010C01CA01A0011124FF271C
:10398000591B99F0593F50F4503E68F11A16F04017
:10399000A22F232F342F4427585FF3CF4695379516
:1039A0002795A795F0405395C9F77EF41F16BA0BDB
:1039B000620B730B840BBAF09150A1F0FF0FBB1F89
:1039C000661F771F881FC2F70EC0BA0F621F731FD2
:1039D000841F48F4879577956795B795F7959E3F2F
:1039E00008F0B0CF9395880F08F09927EE0F9795C0
:1039F000879508950E94011D6894B1110C94B81D1B
:103A000008950E949D1D88F09F5798F0B92F99271F
:103A1000B751B0F0E1F0660F771F881F991F1AF0B9
:103A2000BA95C9F714C0B13091F00E94B71DB1E04A
:103A300008950C94B71D672F782F8827B85F39F049
:103A4000B93FCCF3869577956795B395D9F73EF452
:103A500090958095709561957F4F8F4F9F4F0895FA
:103A6000E89409C097FB3EF4909580957095619518
:103A70007F4F8F4F9F4F9923A9F0F92F96E9BB27CE
:103A80009395F695879577956795B795F111F8CF4A
:103A9000FAF4BB0F11F460FF1BC06F5F7F4F8F4FB5
:103AA0009F4F16C0882311F096E911C0772321F0AB
:103AB0009EE8872F762F05C0662371F096E8862F43
:103AC00070E060E02AF09A95660F771F881FDAF79A
:103AD000880F9695879597F9089597F99F6780E8DD
:103AE00070E060E008959FEF80EC089500240A9450
:103AF0001616170618060906089500240A941216C9
:103B00001306140605060895092E0394000C11F4FB
:103B1000882352F0BB0F40F4BF2B11F460FF04C0A8
:103B20006F5F7F4F8F4F9F4F089557FD9058440F01
:103B3000551F59F05F3F71F04795880F97FB991F0C
:103B400061F09F3F79F087950895121613061406C9
:103B5000551FF2CF4695F1DF08C016161706180656
:103B6000991FF1CF86957105610508940895E89431
:103B7000BB2766277727CB0197F908950E94D11DAF
:103B80000C94841D0E94761D38F00E947D1D20F04B
:103B9000952311F00C946D1D0C94731D11240C943D
:103BA000B81D0E94951D70F3959FC1F3950F50E0CD
:103BB000551F629FF001729FBB27F00DB11D639FDF
:103BC000AA27F00DB11DAA1F649F6627B00DA11D85
:103BD000661F829F2227B00DA11D621F739FB00D2B
:103BE000A11D621F839FA00D611D221F749F33279B
:103BF000A00D611D231F849F600D211D822F762F34
:103C00006A2F11249F5750409AF0F1F088234AF010
:103C1000EE0FFF1FBB1F661F771F881F915050407C
:103C2000A9F79E3F510580F00C946D1D0C94B81DB2
:103C30005F3FE4F3983ED4F3869577956795B79503
:103C4000F795E7959F5FC1F7FE2B880F911D96951D
:103C5000879597F908950F931F93CF93DF93823041
:103C6000910510F482E090E0E0917E2EF0917F2E9D
:103C700030E020E0B0E0A0E0309799F42115310564
:103C800009F44AC0281B390B24303105D8F58A8144
:103C90009B816115710589F1FB0182839383FE018C
:103CA00011C0408151810281138148175907E0F00A
:103CB0004817590799F4109761F012960C931297D0
:103CC00013961C933296CF01DF91CF911F910F91E4
:103CD000089500937E2E10937F2EF4CF2115310589
:103CE00051F04217530738F0A901DB019A01BD01D9
:103CF000DF01F801C1CFEF01F9CF80937E2E9093C1
:103D00007F2ECDCFFE01E20FF31F819391932250BE
:103D1000310928833983D7CF20917C2E30917D2E95
:103D2000232B41F4209107283091082820937C2EE2
:103D300030937D2E209105283091062821153105DC
:103D400041F42DB73EB74091092850910A28241B11
:103D5000350BE0917C2EF0917D2EE217F307A0F455
:103D60002E1B3F0B2817390778F0AC014E5F5F4FD1
:103D70002417350748F04E0F5F1F40937C2E509359
:103D80007D2E819391939FCFF0E0E0E09CCFCF9385
:103D9000DF930097E9F0FC01329712821382A09121
:103DA0007E2EB0917F2EED0130E020E01097A1F43F
:103DB00020813181820F931F20917C2E30917D2EA6
:103DC0002817390709F061C0E0937C2EF0937D2E0F
:103DD000DF91CF910895EA01CE17DF07E8F54A8118
:103DE0005B819E0141155105B1F7E901EA83FB832F
:103DF00049915991C40FD51FEC17FD0761F48081DB
:103E000091810296840F951FE901888399838281AD
:103E100093818A839B83F0E0E0E012968D919C91E0
:103E200013970097B9F52D913C911197CD0102960A
:103E3000820F931F20917C2E30917D2E28173907F9
:103E400039F6309751F510927E2E10927F2EA09366
:103E50007C2EB0937D2EBCCFC283D3834081518111
:103E6000840F951FC817D90761F44E5F5F4F888193
:103E70009981480F591F408351838A819B81828396
:103E800093832115310509F0B0CFE0937E2EF09396
:103E90007F2E9ECFFD01DC01C0CF12821382D7CFCF
:043EA000F894FFCFC4
:103EA4000000000300010200000101000000000006
:103EB40000000000000000000000000000000000FE
:103EC4000000000000000000002010012040041049
:103ED4000208010201020401020408102004080877
:103EE40020104020104080088001020404080102D0
:103EF40080400202000502010500040101040404DB
:103F04000303030303030000020000030101000094
:103F14000102020202050505050305050400050664
:103F2400020401030001000102000102030405026E
:103F34000303050406050406070307000102020340
:103F440000010706000000000502C50D5502260207
:103F5400060259030803F10E5F02A903A3039B0E93
:103F64009B03000000004A04F406AF039B04E00333
:103F7400BE03D203080C1D06EC035A070000000020
:103F84007E09C30DF7085E08F1086A085E08630835
:103F940020081308180800000000F70AD20AF50BDD
:103FA400A80ACB0AB80AA90AC80B830B760B720BB2
:103FB400390B1A0B120B480B400B810A7C0A0D0AB1
:103FC4000048656C6C6F21005475726E696E6721D0
:013FD40000EC
:0C3FD500010024F4000000802E80000099
:0400000300000200F7
:00000001FF
